:020000040800F2
:100000000000022025390008AF340008B134000890
:10001000B3340008B5340008B7340008000000000D
:10002000000000000000000000000000B9340008DB
:10003000BB34000800000000BD340008BF340008D5
:1000400075390008753900087539000875390008D8
:1000500075390008753900087539000875390008C8
:1000600075390008753900087539000875390008B8
:1000700075390008753900087539000875390008A8
:10008000753900087539000875390008000000004E
:1000900000000000000000000000000075390008AA
:1000A0007539000875390008753900087539000878
:1000B0007539000875390008753900087539000868
:1000C0007539000875390008753900087539000858
:1000D00075390008753900087539000800000000FE
:1000E00075390008753900087539000800000000EE
:1000F000000000000000000000000000753900084A
:1001000000000000753900087539000875390008CD
:1001100000000000000000000000000000000000DF
:1001200075390008753900087539000875390008F7
:100130007539000800000000000000000000000009
:10014000000000000000000000000000CD340008A6
:1001500075390008753900087539000875390008C7
:100160007539000875390008000000000000000023
:10017000000000000000000000000000000000007F
:1001800000000000753900080000000000000000B9
:0401900075390008B5
:1001940010B5054C237833B9044B13B10448AFF3BD
:1001A40000800123237010BD5C01002000000000CA
:1001B400A03B000808B5034B1BB103490348AFF348
:1001C400008008BD0000000060010020A03B000882
:1001D40053B94AB9002908BF00281CBF4FF0FF31AA
:1001E4004FF0FF3000F072B9ADF1080C6DE904CEA8
:1001F40000F006F8DDF804E0DDE9022304B07047FE
:100204002DE9F047089E04468846002B4BD18A42CC
:10021400154667D9B2FA82F24AB1C2F1200701FA4F
:1002240002F320FA07F7954047EA030894404FEA9F
:10023400154E230CB8FBFEF71FFA85FC0EFB17883E
:1002440043EA084307FB0CF1994209D9EB1807F17B
:10025400FF3080F01B81994240F21881023F2B4409
:100264005B1AA4B2B3FBFEF00EFB103344EA034462
:1002740000FB0CFCA44509D92C1900F1FF3380F0D4
:100284000781A44540F2048102382C4440EA074027
:10029400A4EB0C0400271EB1D4400023C6E900439C
:1002A4003946BDE8F0878B4209D9002E00F0EB8077
:1002B4000027C6E9000138463946BDE8F087B3FA9D
:1002C40083F7002F47D18B4202D3824200F2FA8097
:1002D400841A61EB030301209846002EE0D0C6E99E
:1002E4000048DDE702B9FFDEB2FA82F2002A40F0EC
:1002F4008F80491B4FEA154E1FFA85F80127B1FB81
:10030400FEFC230C0EFB1C1143EA014308FB0CF119
:10031400994207D9EB180CF1FF3002D2994200F24E
:10032400CD808446591AA3B2B1FBFEF00EFB101423
:1003340043EA044408FB00F8A04507D92C1900F14E
:10034400FF3302D2A04500F2B6801846A4EB08049D
:1003540040EA0C409FE7C7F1200CBB4022FA0CFE98
:100364004EEA030E01FA07F420FA0CF521FA0CF315
:100374004FEA1E482543B3FBF8F92C0C08FB19334C
:100384001FFA8EFA44EA034309FB0AF49C4202FA78
:1003940007F200FA07F10BD91EEB030309F1FF3052
:1003A40080F087809C4240F28480A9F10209734462
:1003B4001B1BADB2B3FBF8F008FB103345EA034452
:1003C40000FB0AFAA24508D91EEB040400F1FF332E
:1003D4006BD2A24569D90238744440EA0940A0FBB3
:1003E4000289A4EB0A044C45C2464B4654D351D06F
:1003F400002E69D0B1EB0A0564EB030404FA0CFC8B
:10040400FD40FC404CEA0505C6E90054002747E7D7
:10041400C2F1200320FA03F7954001FA02F021FA11
:1004240003F34FEA154E3843010CB3FBFEF71FFAF2
:1004340085F80EFB173341EA034107FB08F38B42AF
:1004440004FA02F407D9691807F1FF3C2FD28B4252
:100454002DD9023F2944CB1A81B2B3FBFEF00EFB27
:10046400103341EA034100FB08F38B4207D96918B2
:1004740000F1FF3C17D28B4215D902382944C91A1E
:1004840040EA07473BE73746304609E70746E7E6D1
:100494001846FBE64145ABD2B8EB020A69EB0E0203
:1004A40001381346A4E76046E9E7184695E767462E
:1004B400D1E781467CE702382C4447E7ACF1020CD3
:1004C4002B442FE7384608E73746E9E6704700BF74
:1004D40010B504460E4B18784FF47A73B3FBF0F35F
:1004E4000C4A1068B0FBF3F000F0BAF868B90F2CAE
:1004F40001D901200AE0002221464FF0FF3000F02C
:100504005DF8034B5C60002000E0012010BD00BFDB
:10051400000000209C00002008B50B4B1A6842F430
:1005240000721A601A6842F480621A601A6842F40F
:1005340080721A60032000F02FF80020FFF7C8FF34
:1005440002F084FF002008BD003C0240034A116809
:10055400034B1B780B441360704700BF8C050020CD
:1005640000000020014B1868704700BF8C05002074
:1005740038B50446FFF7F6FF0546B4F1FF3F02D055
:10058400044B1B781C44FFF7EDFF401BA042FAD339
:1005940038BD00BF00000020074AD36823F4E0639D
:1005A4001B041B0C000200F4E060184340F0BF6021
:1005B40040F40030D060704700ED00E030B4174BD9
:1005C400DB68C3F30223C3F10704042C28BF04240B
:1005D4001D1D062D18D9033B4FF0FF3505FA04F411
:1005E40021EA0401994005FA03F322EA03031943BB
:1005F40000280BDB0901C9B200F1604000F561403D
:1006040080F8001330BC70470023E5E700F00F00CA
:100614000901C9B2024B1954F4E700BF00ED00E030
:1006240014ED00E000F01F02400901239340024A48
:1006340042F82030704700BF00E100E0BFF34F8F65
:100644000549CA6802F4E062044B1343CB60BFF36C
:100654004F8F00BFFDE700BF00ED00E00400FA0586
:100664000138B0F1807F0AD2064B5860064AF02167
:1006740082F823100020986007221A607047012036
:10068400704700BF10E000E000ED00E0704708B5DF
:10069400FFF7FCFF08BD000010B409490C6924F4FD
:1006A40040740C610C6944F440740C610C6944F0AE
:1006B40001040C61026043605DF8044B704700BFA5
:1006C400003C0240074B1A6922F440721A611A690D
:1006D40042F400721A611A6942F001021A6101605F
:1006E400704700BF003C0240074B1A6922F4407275
:1006F4001A611A6942F480721A611A6942F001029D
:100704001A610180704700BF003C0240064B1A6921
:1007140022F440721A611A691A611A6942F00102DC
:100724001A610170704700BF003C0240204BDB6837
:1007340013F0100F07D01F4AD36943F01003D3619D
:100744001B4B1022DA601A4BDB6813F0200F07D022
:10075400184AD36943F00803D361154B2022DA60A9
:10076400134BDB6813F0400F07D0124AD36943F0F0
:100774000403D3610E4B4022DA600D4BDB6813F0A7
:10078400800F07D00B4AD36943F00203D361084BAF
:100794008022DA60064BDB6813F0020F07D0054AAB
:1007A400D36943F02003D361014B0222DA6070471E
:1007B400003C024090050020094B1B69002B01DB23
:1007C40000207047064B074A5A6002F188325A608B
:1007D4001B69002B01DB002070470120704700BF1C
:1007E400003C024023016745034A136943F0004378
:1007F40013610020704700BF003C024038B5044636
:10080400154B0022DA61FFF7ADFE0546134BDB689A
:1008140013F4803F0AD0B4F1FF3FF7D0CCB1FFF717
:10082400A1FE401BA042F1D903200DE00B4BDB6875
:1008340013F0010F02D0094B0122DA60074BDB6889
:1008440013F0F20F01D1002038BDFFF76FFF012034
:10085400FAE70320F8E700BF90050020003C0240BF
:10086400F8B51D4C247E012C34D01F4616460D4687
:100874000446194B01221A764CF25030FFF7BEFFA2
:10088400014698B9BCB1012C1AD0022C1DD03246B5
:100894003B462846FFF700FF4CF25030FFF7AEFF0F
:1008A40001460E4A136923F0010313610A4B002227
:1008B4001A760846F8BDF1B22846FFF727FFEBE7A2
:1008C400B1B22846FFF710FFE6E731462846FFF7A6
:1008D400F9FEE1E70221ECE790050020003C02402C
:1008E400074B1A6922F440721A611A6942F0040231
:1008F4001A611A6942EA002040F480301861704796
:10090400003C024010B449B1012921D0022902D08F
:100914004FF4407403E04FF4007400E000240E4BE5
:10092400196921F4407119611A6922431A611A691B
:1009340022F0F8021A611A6942EAC00040F002008B
:1009440018611A6942F480321A615DF8044B7047E9
:100954004FF48074E3E700BF003C0240164B1B6871
:1009640013F4007F10D0144B1A6822F400721A603A
:100974001A6842F400621A601A6822F400621A606B
:100984001A6842F400721A600B4B1B6813F4806FF0
:1009940010D0094B1A6822F480621A601A6842F473
:1009A40080521A601A6822F480521A601A6842F45B
:1009B40080621A60704700BF003C0240F8B5224BC9
:1009C4001B7E012B3ED00E4604461F4B01221A7695
:1009D4004CF25030FFF712FF074670BB4FF0FF3365
:1009E40033602368012B16D0A568E368A26813441A
:1009F400AB4220D9217C2846FFF784FF4CF25030CB
:100A0400FFF7FCFE114A136923F0FA03136107464A
:100A140080B90135E9E76168207CFFF761FF4CF29A
:100A24005030FFF7EBFE0746084A136923F004032E
:100A3400136100E03560FFF791FF034B00221A7643
:100A44003846F8BD0227FBE790050020003C024031
:100A540000230F2B00F2D780F0B482B039E00722D4
:100A640000E00022B2403A430234674E46F82420A4
:100A7400664A1468EA4302EA04064F6817F4803FA2
:100A840001D045EA0406614C2660646802EA040663
:100A94004F6817F4003F01D045EA04065B4C6660DA
:100AA400A46802EA04064F6817F4801F01D045EADF
:100AB4000406564CA660E46822404E6816F4001FF3
:100AC40001D045EA0402514CE26001330F2B00F2DD
:100AD400978001229A400C6804EA0205AA42F4D1E4
:100AE4004C68022C01D0122C10D1DE08083650F8C4
:100AF40026C003F00704A7000F24BC402CEA040C12
:100B04000C69BC4044EA0C0440F8264004685F00C9
:100B14000326BE40F64306EA040C4C6804F00304C2
:100B2400BC4044EA0C0404604C6804F1FF3CBCF192
:100B3400010F03D9112C01D0122C10D1846806EABC
:100B4400040CCC68BC4044EA0C048460446824EA85
:100B540002024C68C4F300149C4014434460C2680D
:100B640016408A68BA403243C2604A6812F0805F15
:100B7400ABD000220192264A546C44F4804454645D
:100B8400526C02F480420192019A9C08A61C1E4AEF
:100B940052F8267003F0030296000F22B24027EAAF
:100BA40002071C4A90423FF45CAF02F58062904217
:100BB4001AD002F58062904218D002F58062904209
:100BC40016D002F58062904214D002F58062904201
:100BD40012D002F58062904210D002F580629042F9
:100BE4003FF43DAF08223DE701223BE7022239E70B
:100BF400032237E7042235E7052233E7062231E7EB
:100C040002B0F0BC7047704700380140003C01401E
:100C140000380240000002400369194201D100205B
:100C240070470120704712B90904816170478161DE
:100C340070472DE9F04383B007460D46D0F8008095
:100C4400CA00521A93000344DE6C1A6DB61A1B6C68
:100C54009E4200D91E4606F103094FEA990915E0A0
:100C640006F103094FEA9909EB005B1B9C003C4425
:100C7400616C3B7C0093B3B2EAB2404601F0C6FB20
:100C8400636C33446364236D33442365414608EB4A
:100C9400451303F510639B699BB24B4512D9EA00D7
:100CA400521B93003B441A6DDB6C9A420AD24BB13F
:100CB4009E1AC5EBC50293003B441B6C9E42CFD9E0
:100CC4001E46CDE73EB90123AB40D1F8345825EA9E
:100CD4000305C1F83458002003B0BDE8F0830028B0
:100CE4006BD0F0B58BB00446032380F8B93302F01F
:100CF40035FC206800F0D6FF254655F8107B6E467B
:100D04000FCD0FC60FCD0FC695E8030086E803008C
:100D1400231D0ECB384600F081FF0021206800F02F
:100D2400C7FF002210E0D100891A8B00234401215F
:100D340083F8391083F83820DA87002183F83B10D0
:100D440019645964D96401320E2AECD9002218E0DE
:100D5400D100891A8B002344002183F8F91183F808
:100D6400F821DA8783F8FB11C3F80012C3F80412E0
:100D7400C3F80C12236802F1400003EB80035960AE
:100D840001320E2AE4D9254655F8107B6E460FCD64
:100D94000FC60FCD0FC695E8030086E80300231D98
:100DA4000ECB384600F09AFF012384F8B93320684B
:100DB40001F0D7FB00200BB0F0BD0120704790F884
:100DC400B833012B0ED010B50446012380F8B83394
:100DD400006801F0BAFB206800F05EFF002084F890
:100DE400B80310BD022070472DE9F047044605689A
:100DF400284601F0F1FB08B1BDE8F08706462068FB
:100E040001F0BBFB0028F7D0206801F0B6FB10F01E
:100E1400020F04D02268536903F00203536120686F
:100E240001F0ABFB10F4002F75D13746206801F0B8
:100E3400A4FB10F4802F40F0D280206801F09DFBC9
:100E44000028C0F23E81206801F097FB10F4006F87
:100E54000AD0D5F8083813F0010F40F04181226818
:100E6400536903F400635361206801F086FB10F4B6
:100E7400805F40F03981206801F07FFB10F4005F4F
:100E840040F08281206801F078FB10F0100F14D03C
:100E94002268936923F0100393612E6A06F00F0809
:100EA400C6F34343022B00F00382062B00F0218299
:100EB4002268936943F010039361206801F05DFB9D
:100EC40010F0080F40F02982206801F056FB10F45E
:100ED400801F40F02B82206801F04FFB10F4001FAC
:100EE40040F02E82206801F048FB10F0804F40F063
:100EF4003182206801F041FB10F0040F3FF47CAF15
:100F040023685D6815F0040F40F02D822268536851
:100F14002B43536070E7206801F033FB804637466B
:100F240021E0F900C91B8A002244D2F800121B698F
:100F3400C3F31203C91AC2F81012D2F80012D2F87D
:100F440004320B44C2F8043228E019F0080F3DD1F2
:100F540019F0100F04D005EB47131022C3F8082B27
:100F640001374FEA5808B8F1000F3FF45FAF18F0AB
:100F7400010FF5D05FFA87FA5146206801F011FBA2
:100F8400814610F0010FE0D005EB47130122C3F8AE
:100F9400082B03F530632269012AC2D0514620464A
:100FA40002F018FB2369012BCFD1002FCDD1C7EB61
:100FB400C70293002344D3F80C32002BC5D104F5A7
:100FC4006F720121206801F027FBBEE7204602F082
:100FD400F9FA05EB47130822C3F8082BB8E7206891
:100FE40001F0D7FA804637462EE0FA00D21B930070
:100FF4002344196C5A6C0A445A6446E019F0080FE9
:1010040004D005EB47130822C3F8082919F0100F80
:1010140004D005EB47131022C3F8082919F0400F38
:1010240004D005EB47134022C3F8082919F0020F36
:1010340004D005EB47130222C3F8082919F0800FE6
:101044003AD101374FEA5808B8F1000F3FF4F5AE32
:1010540018F0010FF5D05FFA87FA5146206801F0C5
:10106400A9FA814610F0010FC8D0012202FA07F054
:10107400D5F8343823EA0003C5F8343805EB4713B0
:10108400C3F8082923699342AFD05146204602F0A1
:10109400ADFA2369012BB1D1002FAFD1C7EBC70241
:1010A40093002344DB6C002BA8D104F56F7201215B
:1010B400206801F0B1FAA1E739462046FFF7B9FDEF
:1010C400BFE7D5F8043823F00103C5F804382046F7
:1010D40002F0C6FA2268536903F000435361B2E692
:1010E400204602F0A5FABAE6A94605F50068D8F844
:1010F400043023F00103C8F804301021206800F004
:1011040095FE07E009EB4613FF22C3F80829C3F84C
:10111400082B01366368B342F4D84FF0FF33C8F8A4
:101124001830D8F81C3043F00113C8F81C30236B76
:10113400EBB1D8F8843043F00B03C8F88430D8F806
:10114400443043F00B03C8F84430D5F8003823F496
:10115400FE63C5F8003804F56F72217C206801F045
:101164005BFA2268536903F48053536183E6D8F829
:10117400143043F00B03C8F81430D8F8103043F09F
:101184000B03C8F81030E0E7206801F029FA226860
:10119400D36823F47053D360206800F074FE90B9D0
:1011A4000023E3604FF4007363612268D36843F45F
:1011B4001053D360204602F02AFA2268536903F4DC
:1011C400005353615EE60323E3604023636100F050
:1011D4001FFD674B0344674A934205D82268D368CE
:1011E40043F47053D360E5E7634B0344634A93428B
:1011F40005D82268D36843F46053D360DAE7A0F5D6
:101204007403A3F510535E4A934205D82268D36849
:1012140043F45053D360CDE7A0F18373A3F5E743C0
:10122400584A934205D82268D36843F44053D360A4
:10123400C0E7554B0344554A934205D82268D36806
:1012440043F43053D360B5E7514B0344514A9342BE
:1012540005D82268D36843F42053D360AAE74E4BE1
:1012640003444E4A934205D82268D36843F410538A
:10127400D3609FE7A0F1B773A3F55853484A93424C
:1012840005D82268D36843F40053D36092E7454BF2
:101294000344454A934205D82268D36843F4E05393
:1012A400D36087E72268D36843F4C053D36081E7EF
:1012B40047F6F0731E423FF4FBAD36094FEAC80A05
:1012C400AAEB08034FEA8309A144C6F30A02D9F83A
:1012D4000412284601F0AEF8C6F30A06D9F804321F
:1012E4003344C9F80432D9F810321E44C9F81062E4
:1012F400DEE5082204F56F71284601F09BF8C6F379
:101304000A164FEAC803A3EB08018A002244D2F864
:1013140010321E44C2F81062CAE5204602F071F988
:101324002268536903F008035361CDE5F9B22046FE
:1013340002F0A2F92268536903F480135361CAE5E9
:10134400F9B2204602F092F92268536903F40013BB
:101354005361C7E5204602F095F92268536903F00A
:1013640080435361C5E5204602F092F9CEE500BF03
:10137400405327FFFF340C00401E1BFF3F420F0069
:101384007F4F12001FD6130060B6E5FE5FE3160020
:1013940000D3CEFE3F771B00C05BB3FEBF9121009C
:1013A4001F753800E05459FEDF9C410090F8B833B3
:1013B400012B0BD010B50446012380F8B833006824
:1013C40001F0B3F8002084F8B80310BD0220704780
:1013D40070B54DB2002D22DB01F07F06C6EBC606C8
:1013E400B40004F5FC74044401F07F012170ED0F96
:1013F4006570A260E37005B1E180022B17D090F80C
:10140400B833012B16D00546012380F8B8332146A2
:10141400006800F058FD002085F8B80370BD01F0A5
:101424007F06C6EBC606B40038340444DCE7002368
:101434002371E4E70220F1E710B54AB2002A1CDB6D
:1014440001F07F04C4EBC404A30003F5FC7303445C
:1014540001F07F011970D20F5A7090F8B823012A55
:1014640013D00446012280F8B8231946006800F01E
:1014740073FD002084F8B80310BD01F07F04C4EBB1
:10148400C404A30038330344E2E70220F4E770B550
:1014940001F07F06F500A91B8C0004F5FC7401190A
:1014A400AD1BAC000444C4F80422C4F80C3200237D
:1014B400C4F8103284F8F93184F8F8610369012B17
:1014C40006D066B1DAB2006800F0BEFD002070BD3F
:1014D400C6EBC605AC000444C4F80822F1E7DAB24E
:1014E400006800F0E3FEF1E770B501F07F06F50057
:1014F400A91B8C0038340119AD1BAC000444626490
:10150400E36400232365012384F8393084F83860C8
:101514000369012B06D05EB1DAB2006800F094FDD5
:10152400002070BDC6EBC605AC000444A264F2E71B
:10153400DAB2006800F0BAFEF2E738B54AB2002A1F
:101544001DDBC1EBC104A30003F5FC7303440124B8
:101554009C7001F07F041C70D20F5A7090F8B8236D
:10156400012A1BD00546012280F8B82319460068D9
:1015740000F074FF5CB1002085F8B80338BD01F0B9
:101584007F04C4EBC404A30038330344DFE705F548
:101594006F72297C286801F03FF8ECE70220EDE740
:1015A40010B54AB2002A1CDBC1EBC104A30003F549
:1015B400FC73034400249C7001F07F011970D20F66
:1015C4005A7090F8B823012A13D00446012280F8F7
:1015D400B8231946006800F073FF002084F8B803AC
:1015E40010BD01F07F04C4EBC404A30038330344EA
:1015F400E0E70220F4E730B40468606A29B10D46DC
:10160400A36A00EB134000230CE040EA0240A0620E
:1016140012E003F1400104EB8101496800EB114041
:101624000133DBB2691E8B42F3DB40EA024005F171
:101634003F0104EB81014860002030BC704703681F
:101644005962002070470000002800F0BB8170B58B
:1016540082B00446036813F0010F3BD0A74B9B688C
:1016640003F00C03042B2CD0A44B9B6803F00C0355
:10167400082B21D06368B3F5803F4FD0B3F5A02F7A
:1016840052D09E4B1A6822F480321A601A6822F4EF
:1016940080221A606368002B50D0FEF763FF054672
:1016A400964B1B6813F4003F14D1FEF75BFF401BFD
:1016B4006428F5D903208AE1904B5B6813F4800F0A
:1016C400D8D08E4B1B6813F4003F03D06368002B03
:1016D40000F07A81236813F0020F55D0874B9B6882
:1016E40013F00C0F3ED0854B9B6803F00C03082BC2
:1016F40033D0E368002B68D0814B01221A60FEF7D7
:1017040031FF05467D4B1B6813F0020F54D1FEF7E1
:1017140029FF401B0228F5D9032058E1774A1368B2
:1017240043F480331360B5E7744B1A6842F48022A3
:101734001A601A6842F480321A60ABE7FEF712FFAF
:1017440005466E4B1B6813F4003FC3D0FEF70AFF37
:10175400401B6428F5D9032039E1684B5B6813F416
:10176400800FC6D1654B1B6813F0020F04D0E368E9
:10177400012B01D001202AE1604A136823F0F80309
:10178400216943EAC1031360236813F0080F40D0B2
:10179400636963B35B4B01221A60FEF7E3FE0546FF
:1017A400564B5B6F13F0020F33D1FEF7DBFE401B89
:1017B4000228F5D903200AE1504A136823F0F803FC
:1017C400216943EAC1031360DEE74D4B00221A602E
:1017D400FEF7C8FE0546494B1B6813F0020FD3D031
:1017E400FEF7C0FE401B0228F5D90320EFE0454B6D
:1017F40000221A60FEF7B6FE0546404B5B6F13F0FD
:10180400020F06D0FEF7AEFE401B0228F5D90320D6
:10181400DDE0236813F0040F79D0384B1B6C13F010
:10182400805F33D100230193344B1A6C42F0805211
:101834001A641B6C03F080530193019B0125324B06
:101844001B6813F4807F23D0A368012B34D0052BAD
:1018540038D02A4B1A6F22F001021A671A6F22F04D
:1018640004021A67A368002B36D0FEF77BFE0646F7
:10187400224B1B6F13F0020F48D1FEF773FE801B3F
:1018840041F288339842F3D90320A0E00025D6E73B
:101894001D4A136843F480731360FEF763FE064623
:1018A400194B1B6813F4807FCED1FEF75BFE801BBF
:1018B4000228F5D903208AE0104A136F43F001038C
:1018C4001367CFE70D4B1A6F42F004021A671A6FC1
:1018D40042F001021A67C5E7FEF744FE0646074BCD
:1018E4001B6F13F0020F11D0FEF73CFE801B41F278
:1018F40088339842F3D9032069E000BF00380240DE
:1019040000004742800E474200700040E5B9A369D9
:10191400002B5BD0304A926802F00C02082A58D09F
:10192400022B17D02D4B00221A60FEF71BFE044633
:10193400294B1B6813F0007F42D0FEF713FE001BF7
:101944000228F5D9032042E0234A136C23F0805384
:101954001364DCE7214B00221A60FEF703FE054600
:101964001D4B1B6813F0007F06D0FEF7FBFD401BE8
:101974000228F5D903202AE0E369226A1343626A44
:1019840043EA8213A26A5208013A43EA0243E26A32
:1019940043EA0263104A5360104B01221A60FEF7B7
:1019A400E1FD04460C4B1B6813F0007F06D1FEF7E3
:1019B400D9FD001B0228F5D9032008E0002006E029
:1019C400002004E001207047012000E0002002B064
:1019D40070BD0120FBE700BF0038024060004742B1
:1019E400324B9B6803F00C03042B5CD0082B01D012
:1019F4002F4870472DE9F04B2C4B5A6802F03F02F8
:101A04005B6813F4800F2BD0284B5B68C3F38813F7
:101A14001E4600275C010025E41A65EB0705A901B1
:101A240041EA9461A001001B61EB0501CB0043EA8C
:101A34005073C400A01943EB07014B0243EAD0538F
:101A44004402204619460023FEF7C2FB174B5B688D
:101A5400C3F3014301335B00B0FBF3F0BDE8F08B4B
:101A6400124B5B68C3F388131E4600275C010025F4
:101A7400E41A65EB0705A90141EA9461A001001B82
:101A840061EB0501CB0043EA5073C400A01943EB9A
:101A940007018B0243EA905384022046194600232F
:101AA400FEF796FBD2E70348704700BF00380240B8
:101AB4000024F40000127A00002800F09D8070B524
:101AC40004464F4B1B6803F00F038B4209D2CBB281
:101AD4004B4A1370136803F00F038B4201D00120AB
:101AE40070BD236813F0020F17D013F0040F04D055
:101AF400444A936843F4E0539360236813F0080F57
:101B040004D0404A936843F4604393603D4A936829
:101B140023F0F003A068034393600D46236813F099
:101B2400010F32D06368012B21D09A1E012A25D9D6
:101B3400344A126812F0020F60D032498A6822F0E7
:101B4400030213438B60FEF70DFD06462D4B9B6885
:101B540003F00C036268B3EB820F16D0FEF702FDAC
:101B6400801B41F288339842F0D90320B8E7254A14
:101B7400126812F4003FE0D10120B1E7214A126853
:101B840012F0007FD9D10120AAE71D4B1B6803F096
:101B94000F03AB4209D9EAB2194B1A701B6803F060
:101BA4000F03AB4201D001209AE7236813F0040F1E
:101BB40006D0144A936823F4E053E1680B4393601E
:101BC400236813F0080F07D00E4A936823F4604388
:101BD400216943EAC1039360FFF702FF094B9B6845
:101BE400C3F30313084AD35CD840084B18600020A1
:101BF400FEF76EFC002073E70120704701206FE7B9
:101C0400003C024000380240B83B00089C00002021
:101C1400014B1868704700BF9C00002084B010B5C9
:101C2400044603A880E80E00089B012B20D1A36B77
:101C340023F48033A363E36823F4840323F0400391
:101C4400E360E36823F44013E3600F9B012B0AD0A5
:101C5400204600F005FD069B012B14D00020BDE8B2
:101C6400104004B07047E36843F48013E360EFE787
:101C7400E36843F04003E360204600F0F1FC4FF4D6
:101C84008033A363E7E7A36843F00603A360A36874
:101C940043F02003A360E1E7836843F0010383601A
:101CA40000207047836823F001038360002070479D
:101CB40008B5C36823F0C043C360012909D019B92A
:101CC400C36843F08043C3603220FEF751FC002018
:101CD40008BDC36843F00053C360F5E784B0F8B5AA
:101CE400044607A880E80E00119FBFB9A36B43F414
:101CF4000013A36325460023C4F8003E04F50066E0
:101D0400D4F80038C4F800380C9B012B10D1099B7F
:101D14004BB90021204600F0AFF80DE0A36B43F46B
:101D24000023A363E6E70121204600F0A5F803E0C1
:101D34000321204600F0A0F81021204600F076F898
:101D4400204600F087F80023336173614FF0FF32BF
:101D5400B261F36108E04FF09040C2F8000900223C
:101D64000A61FF228A600133079999420BD905EB76
:101D7400431202F51061D2F800090028EBDB0020C1
:101D8400C2F80009EBE7002308E04FF0904CC2F8DA
:101D940000CB00220261FF228260013399420DD9F7
:101DA40005EB431202F53060D2F800CBBCF1000F12
:101DB400EBDB4FF0000CC2F800CBEAE7336923F405
:101DC400807333610A9B012B1AD00022A2616FF049
:101DD400804262611BB9A36943F01003A361A26945
:101DE400104B1343A3610D9B1BB1A36943F008037C
:101DF400A361012F0ED00020BDE8F84004B0704765
:101E0400094A3263326B42F4803242F00302326395
:101E1400326BDAE7A36943F0804343F00403A36120
:101E2400E9E700BF00383C8000018000890141F0EF
:101E34002001016100230133054A934205D8026958
:101E440012F0200FF7D1002070470320704700BF25
:101E5400400D03001023036100230133054A93421C
:101E640005D8026912F0100FF7D100207047032043
:101E7400704700BF400D0300D0F800381943C0F884
:101E8400001800207047D0F8083800F5006013F0FF
:101E9400060F10D0836803F00603022B0DD083686D
:101EA40003F00603062B0AD0836803F00603042B11
:101EB40007D000207047002070470320704703209C
:101EC40070470220704730B44B78012B22D0D0F8F1
:101ED4001C380D780122AA4043EA0243C0F81C389A
:101EE4000B7800EB4310D0F8003B13F4004F0ED1F5
:101EF400D0F8003B8A68C2F30A02C97842EA8142F8
:101F0400134343F0805343F40043C0F8003B0020E4
:101F140030BC7047D0F81C280D78AB409BB21343FB
:101F2400C0F81C380C7800EB4410D0F8003913F4D6
:101F3400004FECD1D0F800398A68C2F30A02C9789C
:101F440042EA814242EA8452134343F0805343F409
:101F54000043C0F80039DAE738B54B78012B36D0A6
:101F64000B78044600EB4313D3F8002B22F4004211
:101F7400C3F8002B0B7800EB43134FF00062C3F857
:101F8400002B0B7800EB43134FF08042C3F8002B77
:101F9400002201322B4B9A4252D80B7804EB4313A4
:101FA40003F530639B6813F0100FF2D1D0F80438B6
:101FB40043F48063C0F80438D0F81C38097801224F
:101FC4008A4023EA0243C0F81C38002038BD0B784D
:101FD400044600EB4313D3F8002922F40042C3F86B
:101FE40000290B7800EB43134FF00062C3F800297B
:101FF4000B7800EB43134FF08042C3F80029002212
:102004000132104B9A4219D80B7804EB431303F5B1
:1020140010639B6813F0804FF2D10D4604461021E3
:10202400FFF704FFD4F81C28297801238B409BB2C6
:1020340022EA0303C4F81C380020C7E70320C5E7DD
:102044000320C3E7400D030070B582B04B78012B29
:102054003ED00B7800EB4313D3F8104BE40CE404AC
:10206400C3F8104B0B7800EB4313D3F8104B24F058
:10207400FF5424F4C014C3F8104B4B69002B40F0F8
:10208400D4800B7800EB4313D3F8104B8D68C5F361
:1020940012052C43C3F8104B0B7800EB4313D3F811
:1020A400104B44F40024C3F8104B012A00F0DC80E8
:1020B400CB78012B00F0DF800B7800EB4310D0F8D5
:1020C400003B43F00443C0F8003B002002B070BD65
:1020D4004B696BBB0B7800EB4313D3F8104924F026
:1020E400FF5424F4C014C3F810490B7800EB4313D5
:1020F400D3F8104944F40024C3F810490B7800EBDA
:102104004313D3F81049E40CE404C3F81049012A3A
:1021140054D0CB78012B57D04B69002B54D0D0F836
:1021240034380E780124B4402343C0F834384BE0EB
:102134000B7800EB4313D3F81049E40CE404C3F820
:1021440010490B7800EB4313D3F8104924F0FF54E3
:1021540024F4C014C3F810490C7800EB4414D4F8E8
:1021640010594B698E683344013BB3FBF6F34E4E72
:1021740006EAC3432B43C4F810390B7800EB43132E
:10218400D3F810494D69C5F312052C43C3F810491F
:10219400CB78012BBBD10B7800EB4313D3F8104958
:1021A40024F0C044C3F810490B7800EB4313D3F870
:1021B400104944F00054C3F81049A8E70B7800EB29
:1021C40043130C69C3F81449CB78012B14D00B7852
:1021D40000EB4313D3F8004944F00444C3F8004926
:1021E400CB78012B7FF471AF14468B8A0A78C968C7
:1021F400009400F00BF968E7D0F8083813F4807FF6
:1022040009D10B7800EB4313D3F8004944F0005490
:10221400C3F80049DBE70B7800EB4313D3F800491C
:1022240044F08054C3F80049D1E78C682344013B4F
:10223400B3FBF4F30C7800EB4414D4F8105B1A4E9F
:1022440006EAC3463543C4F8105B0C7800EB44142B
:10225400D4F8106B8D689BB205FB03F5C5F312052A
:102264003543C4F8105B20E7CA680B7800EB4313CE
:10227400C3F8142B1CE7D0F8083813F4807F09D175
:102284000B7800EB4313D3F8002B42F00052C3F851
:10229400002B11E70B7800EB4313D3F8002B42F02B
:1022A4008052C3F8002B07E70000F81F30B44B78C6
:1022B400012B39D00B7800EB4313D3F8104BE40C0B
:1022C400E404C3F8104B0B7800EB4313D3F8104B22
:1022D40024F0FF5424F4C014C3F8104B4B690BB121
:1022E4008B684B610B7800EB4313D3F8104B44F429
:1022F4000024C3F8104B0B7800EB4313D3F8104BB6
:102304008D68C5F312052C43C3F8104B012A76D00F
:102314000B7800EB4310D0F8003B43F00443C0F8C3
:10232400003B002030BC70474B699BBB0B7800EB33
:102334004313D3F8104924F0FF5424F4C014C3F811
:1023440010490B7800EB4313D3F8104944F40024EC
:10235400C3F810490B7800EB4313D3F81049E40C8D
:10236400E404C3F810490B7800EB4313D3F8004995
:1023740044F00444C3F80049012A39D04B69002BC6
:10238400CFD0D0F83438097801228A401343C0F8FA
:102394003438C6E70B7800EB4313D3F81049E40C48
:1023A400E404C3F810490B7800EB4313D3F8104945
:1023B40024F0FF5424F4C014C3F810494C698B680A
:1023C4009C4200D94B610B7800EB4313D3F81049BE
:1023D40044F40024C3F810490B7800EB4313D3F8FA
:1023E40010494D69C5F312052C43C3F81049BAE7E7
:1023F4000B7800EB43100B69C0F8143991E7CA68F5
:102404000B7800EB4313C3F8142B81E770B49DF8E9
:102414000C4064B903339D0807E000EB023303F575
:10242400805351F8046B1E600134AC42F5D3002094
:1024340070BC704703329208002393420CD210B44C
:1024440000F58054246841F8044B01339342F7D3D8
:1024540008465DF8044B7047084670474B78012BDB
:1024640017D00B7800EB4313D3F8002B002A05DBBD
:10247400D3F8002B22F08042C3F8002B0B7800EB3A
:102484004310D0F8003B43F40013C0F8003B002095
:1024940070470B7800EB4313D3F80029002A05DBBF
:1024A400D3F8002922F08042C3F800290B7800EB0E
:1024B4004310D0F8003943F40013C0F80039E6E7BC
:1024C4004B78012B0FD00B7800EB4313D3F8002B80
:1024D40022F40012C3F8002BCB78023BDBB2012BB1
:1024E40019D9002070470B7800EB4313D3F8002967
:1024F40022F40012C3F80029CB78023BDBB2012B93
:10250400EFD80B7800EB4310D0F8003943F0805338
:10251400C0F80039E5E70B7800EB4310D0F8003B36
:1025240043F08053C0F8003BDBE7D0F8003823F4D5
:10253400FE63C0F80038D0F80038090101F4FE61E8
:102544000B43C0F800380020704708B5D0F80438B1
:1025540023F00203C0F804380320FEF709F8002032
:1025640008BD08B5D0F8043843F00203C0F80438B5
:102574000320FDF7FDFF002008BD4269806910407B
:102584007047D0F8183800F50060C0691840000C96
:102594007047D0F8183800F50060C069184080B260
:1025A400704700EB4111D1F8082B00F50060406939
:1025B4001040704710B4D0F81048D0F83438CB40ED
:1025C400DB01DBB2234300EB411000F510608068AF
:1025D40018405DF8044B7047406900F001007047F3
:1025E400D0F8003923F4FF6323F00703C0F800395F
:1025F40000F500639A6802F00602042A05D05A68BE
:1026040042F480725A6000207047D0F8002942F0EA
:102614000302C0F80029F2E710B40024C0F8104BFC
:10262400D0F8104B44F40024C0F8104BD0F8104BF1
:1026340044F01804C0F8104BD0F8104B44F0C044D8
:10264400C0F8104B012903D000205DF8044B7047FB
:10265400C0F8142B4FF08023C0F8003BF4E70000CF
:10266400002301330C4A934211D80269002AF8DA94
:10267400036943F00103036100230133064A9342D3
:1026840007D8026912F0010FF7D100207047032028
:1026940070470320704700BF400D030029230380C7
:1026A4000048704708000020D0F81832002083F852
:1026B4005000704710B5D0F81842E36C012B07D1D5
:1026C400D0F81C32DB686178207898470023E364F3
:1026D400002010BD0A230380004870473400002006
:1026E40038B50446D0F81852D0F81C32DB68697843
:1026F4002878984740232A460121204601F084F88F
:10270400002038BD10B5D0F818420B7813F06003E0
:102714002FD0202B5BD14B78023B092B25D8DFE847
:1027240003F0150924242424241C10058B78236425
:1027340000204DE0012204F1400100F065FC00207E
:1027440046E04B881B0A6364002041E0012204F147
:10275400440100F059FC00203AE00123E3648A7943
:10276400214600F066FC002032E000F0FFF9022070
:102774002EE04B780A2B1FD00B2B24D0062B01D034
:10278400002025E04B881B0A222B07D0212B0DD0DB
:1027940000210A4600F038FC002019E0CA88142AF7
:1027A40028BF1422D0F81C321968F3E7CA88092A12
:1027B40028BF09220749EDE7012204F1480100F08E
:1027C40023FC002004E08B78A364002000E00020B8
:1027D40010BD00BF4000002010B50446812100F068
:1027E400B6FF0121204600F0B2FFD4F8183253B1ED
:1027F400D4F81C329B689847D4F8180201F0E6F824
:102804000023C4F81832002010BD70B50446082314
:102814000322812100F08AFF402303220121204664
:1028240000F084FF542001F0C9F8C4F8180278B10C
:102834000546002680F85060D4F81C325B6898473F
:1028440040232A460121204600F0DEFF304670BDB9
:102854000120FCE738B5D0F8185290F8FC41032C5D
:1028640001D0002038BD95F85030002BF9D1134623
:102874000A46012185F85010812100F0B7FFF0E7E6
:1028840019B1C0F81C12002070470220704798B19B
:1028940008B50346D0F8140210B10020C3F814029E
:1028A40009B1C3F810121846012380F8FC310270F4
:1028B40000F0F4FE002008BD0220704719B1C0F8F2
:1028C4001412002070470220704708B500F020FF62
:1028D400002008BD08B5D0F8143233B11B689847FE
:1028E40008B9002008BD0220FCE70220FAE708B579
:1028F400D0F814325B689847002008BD38B5044608
:1029040000F50275284600F01DF90123C4F8F431DE
:10291400B4F80E32C4F8F83194F8081201F01F0329
:10292400012B0ED03BB1022B10D001F080012046C8
:1029340000F01BFF03E02946204600F07CFA00204B
:1029440038BD2946204600F09AFAF8E72946204681
:1029540000F0B1FAF3E710B5044621BB1346D0F8F2
:10296400F421032A01D0002010BDD0F80C11D0F8B6
:10297400102191420CD8D0F814321B6923B190F87D
:10298400FC21032A00D19847204600F069FBEAE7BE
:10299400891AC0F80C118A4228BF0A4692B2194615
:1029A40000F056FBDFE70A46D0F814329B69002B8F
:1029B400D9D090F8FC110329D5D111469847D2E714
:1029C40010B50446002946D11346D0F8F421022A52
:1029D40005D094F80032012B39D0002010BDC16914
:1029E400026A914219D88169B1FBF2F302FB131315
:1029F4002BB98A4203D8D0F8F83199421AD3D4F8C3
:102A04001432DB682BB194F8FC21032A01D120464F
:102A14009847204600F02FFBDBE78A1AC26192B286
:102A2400194600F0FEFA00231A461946204600F023
:102A3400EBFECEE70022114600F0F3FA0021C4F8C1
:102A4400F8110B460A46204600F0DEFEC1E70023DB
:102A540084F80032C1E70A46D0F814325B69002BCF
:102A6400BBD090F8FC110329B7D111469847B4E7BD
:102A740038B5044640230022114600F057FE402595
:102A8400C4F810512B4600228021204600F04EFE4F
:102A94002562012384F8FC31D4F818322BB1D4F820
:102AA40014325B68217920469847002038BD0174B0
:102AB4000020704790F8FC3180F8FD31042380F841
:102AC400FC310020704790F8FD3180F8FC31002083
:102AD400704708B590F8FC31032B01D0002008BDE5
:102AE400D0F81432DB69002BF8D09847F6E70020C1
:102AF4007047002070470020704708B5012280F815
:102B0400FC21D0F81422526801799047002008BDB6
:102B1400002302E00133DBB201300278002AF9D14C
:102B2400184670474B88012B0BD110B50446C0F8EA
:102B34000432D0F814329B689847204600F090FA8B
:102B440010BD70470B7803704B7843708B78CA784C
:102B540003EB022343800B794A7903EB022383803E
:102B64008B79CA7903EB0223C380704710B50446FE
:102B7400802100F0FAFD0021204600F0F6FD10BD92
:102B840030B583B004460D464A88130A013B062B30
:102B940000F28180DFE803F00413277F7F63700075
:102BA400D0F810321B680DF10601007C9847BDF87F
:102BB400062012B1EB88002B71D103B030BD037C29
:102BC40043B9D0F814329B6A0DF1060098470223EA
:102BD4004370ECE7D0F81432DB6A0DF10600984735
:102BE40002234370E3E7D2B2052A34D8DFE802F0C7
:102BF400030B131B232BD0F810325B680DF1060175
:102C0400007C9847D3E7D0F810329B680DF1060199
:102C1400007C9847CBE7D0F81032DB680DF1060151
:102C2400007C9847C3E7D0F810321B690DF1060108
:102C3400007C9847BBE7D0F810325B690DF10601C0
:102C4400007C9847B3E7D0F810329B690DF1060178
:102C5400007C9847ABE72946FFF788FFADE7037C84
:102C640033B9D0F814325B6B0DF1060098479EE738
:102C74002946FFF77BFFA0E7037C43B9D0F8143261
:102C84001B6B0DF106009847072343708FE7294615
:102C9400FFF76CFF91E72946FFF768FF8DE79A423B
:102CA40028BF1A46ADF806200146204600F0ACF9CC
:102CB40083E738B504468B88E3B9CB88D3B98D78DC
:102CC40005F07F0590F8FC31032B0CD080F8FE5101
:102CD400294600F07DFD204600F0C2F935B10223FB
:102CE40084F8FC3109E0FFF741FF06E0012384F892
:102CF400FC3102E02046FFF739FF38BD38B5044601
:102D04000D468978254B1970012909D890F8FC31B2
:102D1400022B09D0032B1CD02946FFF727FF02E022
:102D24002946FFF723FF38BD81B14160032380F8B2
:102D3400FC31FFF7CFFD022803D0204600F090F9C4
:102D4400F1E729462046FFF711FFECE700F088F988
:102D5400E9E789B1436899421DD0D9B2FFF7C7FDAD
:102D64000E4B197861602046FFF7B4FD02280DD0A0
:102D7400204600F075F9D6E7022380F8FC31416063
:102D8400FFF7B5FD204600F06BF9CCE72946204655
:102D9400FFF7ECFEC7E700F063F9C4E77801002011
:102DA40008B5CB88012B08D190F8FC31022B07D051
:102DB400032B0DD0FFF7DAFE01E0FFF7D7FE08BDC5
:102DC4000146002341F8083F012200F01DF9F6E70F
:102DD4000122011D00F018F9F1E708B590F8FC3163
:102DE400023B012B0CD80123C360D0F804320BB191
:102DF4000323C360022200F10C0100F005F908BDB1
:102E0400FFF7B4FEFBE710B5044690F8FC31023B33
:102E1400012B0DD84B88012B09D10023C0F80432B3
:102E2400D0F814329B689847204600F019F910BD79
:102E3400FFF79CFEFBE708B54B78092B1CD8DFE8AD
:102E440003F012181B151B09051B0F0CFFF798FE46
:102E5400002008BDFFF72DFFFAE7FFF74FFFF7E764
:102E6400FFF79EFFF4E7FFF7B8FFF1E7FFF75AFE1D
:102E7400EEE7FFF7C8FFEBE7FFF778FEE8E738B5C2
:102E840004460D4690F8FC31032B11D10B79012B2C
:102E94000BD8D0F814329B689847EB880BB100200C
:102EA40038BD204600F0DCF8F9E7FFF75FFEF6E7EF
:102EB400FFF75CFEF3E738B505460C468A880B78C5
:102EC40003F06003202B05D1D0F814329B68984797
:102ED400002038BDD1B26378012B25D0002B47D018
:102EE400032BF5D190F8FC31022B05D0032B0AD02B
:102EF4002146FFF73BFEEBE70029E9D08029E7D024
:102F040000F033FCE4E7638823B919B1802901D0C8
:102F140000F02BFCD5F814329B68214628469847CC
:102F2400284600F09DF8D3E790F8FC31022B05D039
:102F3400032B0AD02146FFF719FEC9E70029C7D0A1
:102F44008029C5D000F011FCC2E76388002BBFD1F3
:102F540011F07F0F03D1284600F082F8B8E700F0A3
:102F640012FCD5F814329B68214628469847F2E7AC
:102F740090F8FC31022B05D0032B09D02146FFF732
:102F8400F5FDA5E711F07F0FA2D000F0EEFB9FE75F
:102F940012F0800F11D101F07F04103400EB0414FF
:102FA4000434284600F0FDFB70B1012323600222A3
:102FB4002146284600F028F88AE701F07F0401340E
:102FC40000EB04140434ECE700232360EFE7D0B1F2
:102FD40070B50D4616460446FFF79AFD01304000D1
:102FE40080B23080287003236B70022307E0013421
:102FF4005A1CD2B2E9540233DBB20021A95421781D
:103004000029F4D170BD704710B513460222C0F8F0
:10301400F4218361C3610A46002100F0E7FB00202C
:1030240010BD08B513460A46002100F0DFFB00205E
:1030340008BD10B513460322C0F8F421C0F80831C6
:10304400C0F80C310A46002100F0DEFB002010BD60
:1030540008B513460A46002100F0D6FB002008BD3F
:1030640008B50423C0F8F43100231A46194600F0C9
:10307400BDFB002008BD08B50523C0F8F4310023CA
:103084001A46194600F0C0FB002008BDF0B58DB00B
:1030940000240194374B1A6B42F001021A631A6B35
:1030A40002F001020192019A02941A6B42F00202A8
:1030B4001A631A6B02F002020292029A03941A6BC8
:1030C40042F004021A631A6B02F004020392039A98
:1030D40004941A6B42F008021A631A6B02F0080295
:1030E4000492049A05941A6B42F010021A631A6B44
:1030F40002F010020592059A06941A6B42F08002BF
:103104001A631B6B03F080030693069B09940A94CD
:103114000B944FF4805307930CAD112345F8103DE5
:10312400154E07A93046FDF793FC0894AC60EC609B
:103134004FF4007307930127099707A93046FDF759
:1031440087FC08946C60AC60EC604FF40043079318
:1031540007A90A48FDF77CFC09940A940B944FF4E0
:1031640080730793089707A93046FDF771FC0DB0EB
:10317400F0BD00BF0038024000000240000C0240D5
:1031840030B587B0044600F50035AD0201224FF496
:1031940080712148FDF747FDFDF70EFB102C08D088
:1031A400202C06D0302C04D0402C02D014F07F0FF9
:1031B4000ED10023009302230493184A1388591C48
:1031C400118002930123039305A96846FDF7F6FBDA
:1031D400002413E0E21C124B995CA21C9A5C02EBE3
:1031E4000121621C9A5C02EB01221B5D03EB0222AB
:1031F400002361190220FDF733FB0434B4F5806F1A
:10320400E8DB00224FF480710348FDF70CFDFDF765
:10321400EBFA07B030BD00BF00000240840000207C
:103224007C010020FEE7000000B595B030220021AB
:1032340008A800F0E2FB002303930493059306938C
:1032440007930193224A116C41F080511164126C6E
:1032540002F080520192019A02931E4B1A6822F4E2
:1032640080421A601B6803F480430293029B01238B
:1032740008934FF48033099302230E934FF4800391
:103284000F9306231093A823119304231293072367
:10329400139308A8FEF7D8F980B90F2303930221EA
:1032A4000491002305934FF480520692079303A8D8
:1032B400FEF702FC38B915B05DF804FB40F20311C7
:1032C4000548FFF7AFFF4FF488710348FFF7AAFFE3
:1032D4000038024000700040D03B0008F0B583B0D5
:1032E40000AFFDF719F9FFF79FFF3220FDF740F912
:1032F400FFF7CCFE4FF4FA70FDF73AF94FF4007182
:103304004748FDF789FC003018BF0120454B83F87E
:10331400000493F8003433B1434B1B68434A1268EA
:1033240082F30888984700217960414B1A6C42F077
:1033340080521A641B6C03F080537B607B683D4BA6
:103344001A6842F480721A603B4A11611A6822F4C6
:1033540080721A6000F0E6F808E0384B1022DA6058
:10336400304A0021A2F8021401221A802D4B93F84E
:103374000134012BFAD12B4B002283F801240722BC
:103384002F49304800F02AFBA8B92E4BDB79002BDB
:10339400E3D0012BEAD1234BB3F802349BB22BB90F
:1033A4006420FDF7E5F8FDF749F9DFE7234BD8681A
:1033B400FFF7E6FEF4E71B4BB3F80214214A0B4473
:1033C40002F14001166855689468D0681E605D601B
:1033D4009C60D860103210338A42F3D1114AB2F89B
:1033E400023440339BB2A2F80234B2F802349BB2E6
:1033F400B3F5806FBAD1114CE068FFF7C1FEE36802
:103404000133E360074B0022A3F802240223E3758F
:10341400082204F110010C48FFF71CFAA6E700BFCC
:10342400000002407C010020044000080040000825
:103434000038024000700040502800408400002002
:1034440088000020B0050020FC05002008B50320FA
:10345400FDF7A2F8002211466FF00B00FDF7AEF85D
:10346400002211466FF00A00FDF7A8F80022114669
:103474006FF00900FDF7A2F8002211466FF0040076
:10348400FDF79CF8002211466FF00300FDF796F853
:10349400002211466FF00100FDF790F8002211465A
:1034A4004FF0FF30FDF78AF808BD7047FEE7FEE7EE
:1034B400FEE7FEE770477047704708B5FDF746F82A
:1034C400FDF7E5F808BD000008B50248FDF78CFCDF
:1034D40008BD00BF200800200F49D1F8883043F40C
:1034E4007003C1F888300D4B1A6842F001021A606B
:1034F400002098601A6822F0847222F480321A60E4
:10350400074A5A601A6822F480221A60D8604FF081
:1035140000638B60704700BF00ED00E0003802409C
:103524001030002410B5094C002209492046FFF749
:10353400AEF908492046FFF7C1F907492046FFF7CD
:103544009FF92046FFF7C1F910BD00BFFC0500201C
:10355400DC0000204C000020A00000200368B3F130
:10356400A04F00D0704710B586B04FF4C0530193FC
:103574000223029300240394032304930A23059350
:1035840001A90E48FDF764FA0D4B5A6B42F0800214
:103594005A6300945A6C42F480425A645B6C03F49C
:1035A40080430093009B224621464320FDF706F802
:1035B4004320FDF737F806B010BD00BF00000240FD
:1035C4000038024008B500F56F71D0F8EC03FFF73E
:1035D40095F908BD08B5C1EBC10293000344D3F8C3
:1035E4000422D0F8EC03FFF7B6F908BD08B5C1EB27
:1035F400C102930003445A6CD0F8EC03FFF7E0F9DE
:1036040008BD08B5D0F8EC03FFF763FA08BD10B5A0
:103614000446C3684BB10121D4F8EC03FFF747FA21
:10362400D4F8EC03FFF724FA10BD0021F4E70000FE
:1036340010B50446D0F8EC03FFF73CFA2268D2F840
:10364400003E43F00103C2F8003E236A23B1034A5B
:10365400136943F00603136110BD00BF00ED00E0E1
:1036640008B5D0F8EC03FFF72EFA08BD08B5D0F87A
:10367400EC03FFF73EFA08BD08B5D0F8EC03FFF7FA
:1036840036FA08BD08B5D0F8EC03FFF734FA08BDE4
:1036940008B5D0F8EC03FFF730FA08BD03780BB196
:1036A4000020704710B503461748C0F8EC33C3F840
:1036B40020024FF0A0430360042343600222C2604F
:1036C4000023036143618261C36103624362C36295
:1036D4000363FDF704FB80B90B4C80212046FDF702
:1036E400AEFF402200212046FDF785FF8022012104
:1036F4002046FDF780FF002010BD4FF4A57103485C
:10370400FFF790FDE8E700BF20080020E03B000839
:1037140008B5D0F82002FDF752FB18B1022803D0F7
:10372400022008BD0020FCE70120FAE710B51C4682
:1037340013462246D0F82002FDF74AFE18B10228AB
:1037440003D0022010BD0020FCE70120FAE708B5F1
:10375400D0F82002FDF770FE18B1022803D0022031
:1037640008BD0020FCE70120FAE708B5D0F82002E4
:10377400FDF7E3FE18B1022803D0022008BD0020A3
:10378400FCE70120FAE708B5D0F82002FDF708FFAE
:1037940018B1022803D0022008BD0020FCE7012054
:1037A400FAE7D0F8203211F0800F08D101F07F0140
:1037B400C1EBC1018A00134493F8FA01704701F088
:1037C4007F01C1EBC1018A00134493F83A007047AA
:1037D40008B5D0F82002FDF7E9FD18B1022803D09E
:1037E400022008BD0020FCE70120FAE708B5D0F864
:1037F4002002FDF779FE18B1022803D0022008BD8B
:103804000020FCE70120FAE708B5D0F82002FDF714
:103814003EFE18B1022803D0022008BD0020FCE7B8
:103824000120FAE70020704700207047084BD3F8C6
:103834001802002304E0C15C064AD1540133DBB210
:103844003F2BF8D9044B01221A700020704700BFA7
:10385400FC050020B00500207D05002012230B800C
:1038640000487047C400002004230B8000487047C0
:10387400D800002008B50A4628B105490548FFF7D5
:10388400A6FB034808BD02490248FFF7A0FBF8E77E
:10389400100C0020F43B000810B5044C0A462146E5
:1038A4000348FFF794FB204610BD00BF100C002016
:1038B4000C3C000808B50A4628B105490548FFF73D
:1038C40086FB034808BD02490248FFF780FBF8E77E
:1038D400100C0020203C000808B50A4628B1054910
:1038E4000548FFF774FB034808BD02490248FFF787
:1038F4006EFBF8E7100C00202C3C000808B50A46C3
:1039040028B105490548FFF762FB034808BD024991
:103914000248FFF75CFBF8E7100C0020483C000865
:10392400DFF834D0002103E00C4B5B5843500431E2
:103934000B480C4B42189A42F6D30B4A02E0002380
:1039440042F8043B094B9A42F9D3FFF7C5FD00F056
:1039540011F8FFF7C3FC704700000220783C000810
:10396400000000205C0100205C010020140E0020F7
:10397400FEE7000070B50D4E0D4CA41BA4100025ED
:10398400A54209D10B4E0C4C00F008F9A41BA4105D
:103994000025A54205D170BD56F82530984701355C
:1039A400EEE756F8253098470135F2E7703C0008F9
:1039B400703C0008703C0008743C0008024B01464F
:1039C400186800F071B800BFF8000020024B0146EF
:1039D400186800F01BB800BFF800002030B50024C0
:1039E400A24201D1002007E0035D01340D1915F84E
:1039F400015CAB42F4D0581B30BD024403469342F1
:103A040000D1704703F8011BF9E7000038B50546FB
:103A1400002945D051F8043C0C1F002BB8BFE41812
:103A240000F0ACF81F4A1368104633B963601460A1
:103A34002846BDE8384000F0A2B8A3420CD921685A
:103A44006218934204BF1A685B68636004BF52182B
:103A540022600460ECE713465A680AB1A242FAD91C
:103A640019685818A0420BD12068014458188242A2
:103A74001960DDD1106852685A6001441960D7E7B3
:103A840002D90C232B60D3E7206821188A4204BF93
:103A940011685268626004BF091821605C60C7E75E
:103AA40038BD00BF8005002070B5CD1C25F003058E
:103AB40008350C2D38BF0C25002D064601DBA94224
:103AC40003D90C233360002070BD00F057F8214A5D
:103AD4001468214691B9204C23681BB9304600F084
:103AE4003DF820602946304600F038F8431C24D1C4
:103AF4000C233360304600F042F8E4E70B685B1BAC
:103B040018D40B2B0FD90B60CD50CC18304600F0D5
:103B140036F804F10B00231D20F00700C31AD3D09C
:103B24005A42E250D0E78C424B6816BF6360136080
:103B34000C46EBE70C464968CCE7C41C24F00304AC
:103B4400A04205D0211A304600F008F80130CFD049
:103B54002560DBE7800500208405002038B5064C8D
:103B6400002305460846236000F00AF8431C02D1EE
:103B7400236803B12B6038BD100E002070477047D6
:103B8400044A05491368002B08BF0B46184410600B
:103B94001846704788050020180E0020F8B500BFAD
:103BA400F8BC08BC9E467047F8B500BFF8BC08BC1A
:043BB4009E46704772
:103BB80000000000000000000102030406070809D5
:103BC80000000000010203042E2E2F5372632F6D94
:103BD80061696E2E630000002E2E2F5372632F75BD
:103BE8007362645F636F6E662E63000053544D33D7
:103BF800322048494420626F6F746C6F616465724B
:103C0800000000007777772E7365726173696469C5
:103C1800732E67720000000031323334353637387E
:103C28003930000053544D33322048494420626FE4
:103C38006F746C6F6164657220436F6E66696700AC
:103C480053544D33322048494420626F6F746C6F6F
:103C58006164657220496E7465726661636500000F
:083C68009CC5FF7F0100000074
:043C7000B90100088E
:043C740095010008AE
:103C7800010000001000000009022900010100C035
:103C880032090400000203000000092111010001AB
:103C980022140007058103080020070501014000E0
:103CA800200000000A060002000000400100000099
:103CB8000921110100012214000000000F2800084A
:103CC800DD2700080927000800000000B9260008C1
:103CD800AD260008E52600080000000000000000EE
:103CE80000000000A1260008A1260008A12600085F
:103CF800D92600080100000042544C44434D4400BA
:103D08001000000042544C44434D44020024F40087
:103D1800B0000020293800082D3800083138000884
:103D28000600FF0900A101750895409103750895E3
:103D3800088103C012010002000000400912BABE47
:103D480000030102030100000403090461380008AC
:103D58006D3800089D38000879380008B93800081F
:103D6800DD38000801390008FC00002000000000D0
:103D7800000000000000000000000000000000003B
:103D8800000000000000000000000000000000002B
:103D9800000000000000000000000000000000001B
:103DA800000000000000000000000000000000000B
:103DB80000000000000000000000000000000000FB
:0C3DC800000000000000000000000000EF
:040000050800392591
:00000001FF
