:020000040800F2
:1040000000000220158C00088D8700088F870008AB
:10401000918700089387000895870008000000003A
:10402000000000000000000000000000978700086A
:1040300099870008000000009B8700089D87000802
:10404000658C0008658C0008658C0008658C00088C
:10405000658C0008658C0008658C0008658C00087C
:10406000658C0008658C0008658C0008658C00086C
:10407000658C0008658C0008658C0008658C00085C
:10408000658C0008658C0008658C0008658C00084C
:10409000658C0008658C0008658C0008658C00083C
:1040A000658C0008C98B0008658C0008658C0008C9
:1040B000658C0008658C0008658C0008658C00081C
:1040C000658C0008658C0008658C0008658C00080C
:1040D000658C0008658C0008658C0008658C0008FC
:1040E000658C0008658C0008658C0008658C0008EC
:1040F000658C0008658C0008658C0008658C0008DC
:10410000658C0008658C0008658C0008658C0008CB
:10411000658C0008658C0008658C0008658C0008BB
:10412000658C0008658C0008B98B0008658C000858
:10413000658C0008658C0008658C0008658C00089B
:10414000658C0008658C0008658C0008A587000850
:10415000658C0008658C0008658C0008658C00087B
:10416000658C0008658C0008658C0008658C00086B
:10417000658C0008658C0008658C00080000000054
:08418000658C0008658C000845
:1041880010B5054C237833B9044B13B10448AFF389
:1041980000800123237010BDC8010020000000002A
:1041A800608E000808B5034B1BB103490348AFF301
:1041B800008008BD00000000CC010020608E0008CF
:1041C80053B94AB9002908BF00281CBF4FF0FF3176
:1041D8004FF0FF3000F072B9ADF1080C6DE904CE74
:1041E80000F006F8DDF804E0DDE9022304B07047CA
:1041F8002DE9F047089E04468846002B4BD18A4299
:10420800154667D9B2FA82F24AB1C2F1200701FA1B
:1042180002F320FA07F7954047EA030894404FEA6B
:10422800154E230CB8FBFEF71FFA85FC0EFB17880A
:1042380043EA084307FB0CF1994209D9EB1807F147
:10424800FF3080F01B81994240F21881023F2B44D5
:104258005B1AA4B2B3FBFEF00EFB103344EA03442E
:1042680000FB0CFCA44509D92C1900F1FF3380F0A0
:104278000781A44540F2048102382C4440EA0740F3
:10428800A4EB0C0400271EB1D4400023C6E9004368
:104298003946BDE8F0878B4209D9002E00F0EB8043
:1042A8000027C6E9000138463946BDE8F087B3FA69
:1042B80083F7002F47D18B4202D3824200F2FA8063
:1042C800841A61EB030301209846002EE0D0C6E96A
:1042D8000048DDE702B9FFDEB2FA82F2002A40F0B8
:1042E8008F80491B4FEA154E1FFA85F80127B1FB4D
:1042F800FEFC230C0EFB1C1143EA014308FB0CF1E6
:10430800994207D9EB180CF1FF3002D2994200F21A
:10431800CD808446591AA3B2B1FBFEF00EFB1014EF
:1043280043EA044408FB00F8A04507D92C1900F11A
:10433800FF3302D2A04500F2B6801846A4EB080469
:1043480040EA0C409FE7C7F1200CBB4022FA0CFE64
:104358004EEA030E01FA07F420FA0CF521FA0CF3E1
:104368004FEA1E482543B3FBF8F92C0C08FB193318
:104378001FFA8EFA44EA034309FB0AF49C4202FA44
:1043880007F200FA07F10BD91EEB030309F1FF301E
:1043980080F087809C4240F28480A9F1020973442E
:1043A8001B1BADB2B3FBF8F008FB103345EA03441E
:1043B80000FB0AFAA24508D91EEB040400F1FF33FA
:1043C8006BD2A24569D90238744440EA0940A0FB7F
:1043D8000289A4EB0A044C45C2464B4654D351D03B
:1043E800002E69D0B1EB0A0564EB030404FA0CFC57
:1043F800FD40FC404CEA0505C6E90054002747E7A4
:10440800C2F1200320FA03F7954001FA02F021FADD
:1044180003F34FEA154E3843010CB3FBFEF71FFABE
:1044280085F80EFB173341EA034107FB08F38B427B
:1044380004FA02F407D9691807F1FF3C2FD28B421E
:104448002DD9023F2944CB1A81B2B3FBFEF00EFBF3
:10445800103341EA034100FB08F38B4207D969187E
:1044680000F1FF3C17D28B4215D902382944C91AEA
:1044780040EA07473BE73746304609E70746E7E69D
:104488001846FBE64145ABD2B8EB020A69EB0E02CF
:1044980001381346A4E76046E9E7184695E76746FA
:1044A800D1E781467CE702382C4447E7ACF1020C9F
:1044B8002B442FE7384608E73746E9E6704700BF40
:1044C80010B504460E4B18784FF47A73B3FBF0F32B
:1044D8000C4A1068B0FBF3F000F0AAF868B90F2C8A
:1044E80001D901200AE0002221464FF0FF3000F0F8
:1044F8005DF8034B5C60002000E0012010BD00BFA8
:10450800000000201001002008B50B4B1A6842F487
:1045180000721A601A6842F480621A601A6842F4DB
:1045280080721A60032000F02FF80020FFF7C8FF00
:1045380004F00CF9002008BD003C0240034A116851
:10454800034B1B780B441360704700BF48020020E0
:1045580000000020014B1868704700BF4802002087
:1045680038B50446FFF7F6FF0546B4F1FF3F02D021
:10457800044B1B781C44FFF7EDFF401BA042FAD305
:1045880038BD00BF00000020074AD36823F4E06369
:104598001B041B0C000200F4E060184340F0BF60ED
:1045A80040F40030D060704700ED00E030B4174BA5
:1045B800DB68C3F30223C3F10704042C28BF0424D7
:1045C8001D1D062D18D9033B4FF0FF3505FA04F4DD
:1045D80021EA0401994005FA03F322EA0303194387
:1045E80000280BDB0901C9B200F1604000F5614009
:1045F80080F8001330BC70470023E5E700F00F0097
:104608000901C9B2024B1954F4E700BF00ED00E0FC
:1046180014ED00E0002807DB00F01F024009012329
:104628009340024A42F82030704700BF00E100E0A2
:104638000138B0F1807F0AD2064B5860064AF02153
:1046480082F823100020986007221A607047012022
:10465800704700BF10E000E000ED00E0F0B583B067
:10466800044600230193724B1D68724BA3FB05356A
:10467800AD0A876D3E68C26D08239340334210D05F
:1046880003681A6812F0040F0BD01A6822F00402AB
:104698001A60C26D08239340BB60436D43F0010369
:1046A8004365E26D01239340334209D02268526981
:1046B80012F0800F04D0BB60636D43F002036365A2
:1046C800E26D04239340334209D02268126812F045
:1046D800020F04D0BB60636D43F004036365E26DB1
:1046E80010239340334224D02268126812F0080F36
:1046F8001FD0BB6023681A6812F4802F0DD01B6886
:1047080013F4002F04D1236C9BB12046984710E086
:10471800A36C73B1204698470BE01A6812F4807FA7
:1047280003D11A6822F008021A60236C0BB12046E4
:104738009847E26D20239340334255D0226812688F
:1047480012F0100F50D0BB6094F83530DBB2052B57
:104758000ED023681A6812F4802F33D01B6813F424
:10476800002F2AD1636C002B3ED0204698473BE0AF
:104778002268136823F0160313602268536923F034
:1047880080035361236CA3B12268136823F00803E4
:104798001360E26D3F239340BB60002384F83430FC
:1047A800012384F83530236D002B3FD020469847ED
:1047B8003CE0A36C002BE7D1EBE7E36BA3B1204609
:1047C800984711E01A6812F4807F09D11A6822F01C
:1047D80010021A60002384F83430012384F835303D
:1047E800E36B0BB120469847636DFBB1636D13F023
:1047F800010F17D0052384F835302268136823F099
:1048080001031360019B01330193AB4204D8236871
:104818001B6813F0010FF5D1002384F8343001230D
:1048280084F83530E36C0BB12046984703B0F0BDEF
:1048380010010020B5814E1B00230F2B00F2D780FA
:10484800F0B482B039E0072200E00022B2403A43D7
:104858000234674E46F82420664A1468EA4302EA9E
:1048680004064F6817F4803F01D045EA0406614CFE
:104878002660646802EA04064F6817F4003F01D016
:1048880045EA04065B4C6660A46802EA04064F68C1
:1048980017F4801F01D045EA0406564CA660E46868
:1048A80022404E6816F4001F01D045EA0402514C1C
:1048B800E26001330F2B00F2978001229A400C68C6
:1048C80004EA0205AA42F4D14C68022C01D0122C49
:1048D80010D1DE08083650F826C003F00704A700F8
:1048E8000F24BC402CEA040C0C69BC4044EA0C04BC
:1048F80040F8264004685F000326BE40F64306EAF7
:10490800040C4C6804F00304BC4044EA0C04046042
:104918004C6804F1FF3CBCF1010F03D9112C01D004
:10492800122C10D1846806EA040CCC68BC4044EA16
:104938000C048460446824EA02024C68C4F300143E
:104948009C4014434460C26816408A68BA403243A7
:10495800C2604A6812F0805FABD000220192264AFA
:10496800546C44F480445464526C02F480420192C2
:10497800019A9C08A61C1E4A52F8267003F00302EE
:1049880096000F22B24027EA02071C4A90423FF4E1
:104998005CAF02F5806290421AD002F580629042C4
:1049A80018D002F58062904216D002F580629042DB
:1049B80014D002F58062904212D002F580629042D3
:1049C80010D002F5806290423FF43DAF08223DE7E7
:1049D80001223BE7022239E7032237E7042235E7C1
:1049E800052233E7062231E702B0F0BC7047704772
:1049F80000380140003C01400038024000000240FD
:104A08000369194201D1002070470120704712B98B
:104A1800090481617047816170472DE9F04782B0D0
:104A28000768CA00521A930003445A6D1B6D9A42D4
:104A380057D8B8469B1AC1EBC104A2000244526C75
:104A48009A4200D31A460C46064602F1030A4FEA78
:104A58009A0A16E009F1030A4FEA9A0AE3001B1BB7
:104A68009D003544A96C337C00931FFA89F3E2B2A8
:104A7800384601F0F7FDAB6C4B44AB646B6D4B44AF
:104A88006B6508EB441303F510639B699BB25345B0
:104A980013D3E3001B1B9A003244516D136D9942E6
:104AA8000BD253B15B1AC4EBC4018A003244D2F86A
:104AB80044909945CED39946CCE7E3001B1B980058
:104AC8000644326D736D9A420FD804F00F04012129
:104AD800A140D7F8344824EA0104C7F83448002034
:104AE80000E0012002B0BDE8F0870020FAE7F0B549
:104AF8008BB0002800F08380044690F8BD33F3B1F2
:104B0800032384F8BD33206801F066FB254655F879
:104B1800107B6E460FCD0FC60FCD0FC695E803006C
:104B280086E80300231D0ECB384601F093FA58B1EE
:104B3800022384F8BD33012528460BB0F0BD80F868
:104B4800BC3303F097FEDBE70021206801F04AFB45
:104B5800002315E0D900C81A82002244012082F8F7
:104B68003D0082F83C30A2F84230002082F83F0035
:104B780050649064CA1A9100214408650133DBB27D
:104B88006568AB42E6D3002315E0D800C11A8A0055
:104B98002244002182F8FD1182F8FC3182F8FF11CD
:104BA800C2F80412C2F80812C21A90002044C0F8D1
:104BB80010120133DBB29D42E7D8254655F8107B29
:104BC8006E460FCD0FC60FCD0FC695E8030086E8D9
:104BD8000300231D0ECB384601F04AFB054620B1E1
:104BE800022384F8BD330125A6E7002384F8383072
:104BF800012384F8BD33206801F0C9FE9CE7012534
:104C08009AE7026890F8BC33012B19D010B501233C
:104C180080F8BC33836A012B0AD00446006801F08F
:104C2800AAFE206801F0D2FA002084F8BC0310BD67
:104C38008369012BF1D0936B43F480339363ECE7E2
:104C48000220704770B505460E460368196C03EBE1
:104C5800461303F53064A3680269012A0FD0354A68
:104C6800914261D113F4004F5AD113F0200F01D0B3
:104C78002023A360F1B2284603F042FE57E013F068
:104C8800080F14D02C4A914205D913F4004F02D0D2
:104C98004FF40043A360284603F02AFE05F571721D
:104CA8000121286801F0D0FE0823A3603FE013F03B
:104CB800200F2ED113F0280F39D11F4A914202D963
:104CC80013F4004F28D1F200921B93002B44D3F821
:104CD80004222169C1F31201521AC3F81422D3F82D
:104CE8000412D3F808220A44C3F80822F1B228466D
:104CF80003F006FEDEB9C6EBC606B3002B44D3F8B4
:104D08001032A3B905F571720121286801F09CFEE3
:104D18000DE02023A3600AE04FF40043A36006E0FF
:104D28004FF40043A36002E0F1B203F0E9FD002074
:104D380070BD00BF0A31544F0A30544F38B504468D
:104D480003681D6C03EB411101F530618A68036942
:104D5800012B0DD0124B9D4214D0204603F0C8FD04
:104D6800104B9D4202D92369012B12D0002038BD77
:104D78000C4B9D42F1D912F4004FEED04FF4004392
:104D88008B60EAE712F4004FE7D04FF400438B60E2
:104D9800E3E704F571720121206801F055FEE5E7AB
:104DA8000A31544F0A30544F2DE9F84F044605682C
:104DB800284601F029FE08B1BDE8F88FA846064646
:104DC800206801F0F0FD0028F6D0206801F0EBFD26
:104DD80010F0020F04D02268536903F002035361F4
:104DE800206801F0E0FD10F4002F75D137462068E7
:104DF80001F0D9FD10F4802F40F0C080206801F048
:104E0800D2FD0028C0F22E81206801F0CCFD10F4FC
:104E1800006F0AD0D5F8083813F0010F40F03C8134
:104E28002268536903F400635361206801F0BBFDF5
:104E380010F4805F40F03481206801F0B4FD10F474
:104E4800005F40F08781206801F0ADFD10F0100F81
:104E580014D02268936923F0100393612E6A06F038
:104E68000F08C6F34343022B00F09181062B00F094
:104E7800AF812268936943F010039361206801F0C1
:104E880092FD10F0080F40F0B781206801F08BFD0B
:104E980010F4801F40F0B981206801F084FD10F4FF
:104EA800001F40F0BC81206801F07DFD10F0804FAC
:104EB80040F0BF81206801F076FD10F0040F3FF448
:104EC8007BAF23685D6815F0040F40F0BB81226852
:104ED80053682B4353606FE7206801F068FD8146F3
:104EE800374624E008EB47130122C3F8082B39465C
:104EF8002046FFF7A7FE29E039462046FFF71EFFA8
:104F080008EB47130822C3F8082B22E008EB4713E5
:104F18002022C3F8082B1AF4005F05D008EB4713CA
:104F28004FF40052C3F8082B01374FEA5909B9F179
:104F3800000F3FF45CAF19F0010FF5D0F9B220680B
:104F480001F045FD824610F0010FCBD11AF0080F91
:104F5800D2D11AF0100F04D008EB47131022C3F86F
:104F6800082B1AF0200FD6D02369012BCED104F5D7
:104F780071720121206801F067FDC7E7206801F020
:104F88001EFD814637462EE0FA00D21B93002344CB
:104F9800596C9A6C0A449A6448E01AF0080F04D0D5
:104FA80008EB47130822C3F808291AF0100F04D099
:104FB80008EB47131022C3F808291AF0400F04D051
:104FC80008EB47134022C3F808291AF0020F04D04F
:104FD80008EB47130222C3F808291AF0800F3CD1C6
:104FE80001374FEA5909B9F1000F3FF407AF19F03B
:104FF800010FF5D05FFA87FB5946206801F0F0FCF5
:10500800824610F0010FC8D007F00F03012101FA02
:1050180003F2D8F8343823EA0203C8F8343808EB26
:105028004713C3F8081923698B42ADD05946204667
:1050380003F072FC2369012BAFD1002FADD1C7EB70
:10504800C702930023441B6D002BA6D104F571728F
:105058000121206801F0F8FC9FE739462046FFF758
:10506800DCFCBDE7D5F8043823F00103C5F80438A3
:1050780094F8F433012B08D0204603F08DFC226805
:10508800536903F000435361BEE6002184F8F4132A
:10509800204600F05FFAF2E7204603F065FCBFE621
:1050A80005F50069D9F8043023F00103C9F8043084
:1050B8001021206801F0AEF814E008EB46134FF613
:1050C8007F31C3F80819D3F8002922F40012C3F875
:1050D8000029C3F8081BD3F8002B22F40012C3F8E8
:1050E800002B01366368B342E7D8D9F81C3043F087
:1050F8000113C9F81C30236BEBB1D9F8843043F0A5
:105108000B03C9F88430D9F8443043F00B03C9F8CD
:105118004430D5F8003823F4FE63C5F8003804F5A8
:105128007172217C206801F08FFC2268536903F4B6
:105138008053536180E6D9F8143043F4005343F0A8
:105148002B03C9F81430D9F8103043F00B03C9F811
:105158001030DEE7206801F05BFC206801F058F9A8
:1051680090B90023E360266800F0A2FC227B014688
:10517800304600F0B5FF204603F0DFFB2268536994
:1051880003F4005353615EE60323E360EBE747F65D
:10519800F0731E423FF46DAE4FEAC80AAAEB08034B
:1051A8004FEA8309A1443609C6F30A02D9F808125E
:1051B800284601F061FBC6F30A06D9F808323344E1
:1051C800C9F80832D9F814321E44C9F8146250E6F6
:1051D800082204F57171284601F04EFBC6F30A1641
:1051E8004FEAC803A3EB08018A002244D2F814321C
:1051F8001E44C2F814623CE6204603F098FB22687D
:10520800536903F0080353613FE6F9B2204603F0FF
:10521800CFFB2268536903F4801353613CE6F9B26B
:10522800204603F0BFFB2268536903F4001353615F
:1052380039E6204603F0C2FB2268536903F0804335
:10524800536137E6204603F0BFFB40E690F8BC33D5
:10525800012B0DD010B50446012380F8BC3380F82B
:105268003810006801F077FB002084F8BC0310BDFB
:1052780002207047F8B511F0800F28D101F00F0611
:10528800F500AF1BBC00274604F5FC740444043445
:105298003E460644002586F8FD5101F00F012170B5
:1052A800A260E370627802B1E180022B1ED090F810
:1052B800BC33012B1DD00546012380F8BC332146A1
:1052C800006801F0B6F8002085F8BC03F8BD01F0CD
:1052D8000F06F500AF1BBC002746383404440434DD
:1052E8003E460644012586F83D50D6E70023237143
:1052F800DDE70220EAE738B511F0800F21D101F08F
:105308000F05EA00541BA3001C4603F5FC73034475
:10531800043325460544002285F8FD2101F00F01DC
:10532800197090F8BC23012A1AD00446012280F88B
:10533800BC231946006801F0C7F8002084F8BC03B4
:1053480038BD01F00F04E200151BAB001D463833D1
:10535800034404332C460444012284F83D20DDE74D
:105368000220EDE770B501F00F05EE00711B8C000F
:1053780004F5FC740444211D761BB4000444C4F8ED
:105388000822C4F810320023C4F8143284F8FD311E
:1053980084F8FC510369012B06D065B1DAB20068C4
:1053A80001F074F9002070BDC5EBC506B4000444D3
:1053B800C4F80C22F1E7DAB2006801F0CDF8F1E7A1
:1053C80070B501F00F05EE00711B8C0038340444F1
:1053D800211D761BB4000444A26423650023636581
:1053E800012384F83D3084F83C500369012B06D032
:1053F8005DB1DAB2006801F049F9002070BDC5EB73
:10540800C506B4000444E264F2E7DAB2006801F0C9
:10541800A3F8F2E738B501F00F0543689D4236D886
:1054280011F0800F20D1CA00541AA3001C4603F5BE
:10543800FC730344043322460244002182F8FD1120
:1054480001229A701D7090F8BC23012A21D00446CD
:10545800012280F8BC231946006801F021FA7DB1C9
:10546800002084F8BC0313E0EA00511B8B001946A6
:105478003833034404330144012281F83D20DFE737
:1054880004F57172217C206801F0DEFAE8E701205A
:1054980038BD0220FCE710B501F00F0443689C42B8
:1054A8002CD811F0800F1DD1E3001A1B91000A4679
:1054B80001F5FC71014404310244002382F8FD31F6
:1054C80000238B700C7090F8BC33012B18D0044665
:1054D800012380F8BC33006801F00FFA002084F83B
:1054E800BC030CE0E3001A1B91000A463831014462
:1054F80004310244012382F83D30E1E7012010BD68
:105508000220FCE730B40468606A29B10D46A36A3A
:1055180000EB134000230CE040EA0240A06212E0D6
:1055280003F1400104EB8101496800EB11400133AC
:10553800DBB2691E8B42F3D340EA024005F13F011A
:1055480004EB81014860002030BC70470368596251
:105558000020704770470000002800F0BB8170B53C
:1055680082B00446036813F0010F3BD0A74B9B6839
:1055780003F00C03042B2CD0A44B9B6803F00C0302
:10558800082B21D06368B3F5803F4FD0B3F5A02F27
:1055980052D09E4B1A6822F480321A601A6822F49C
:1055A80080221A606368002B50D0FEF7D3FF0546AF
:1055B800964B1B6813F4003F14D1FEF7CBFF401B3A
:1055C8006428F5D903208AE1904B5B6813F4800FB7
:1055D800D8D08E4B1B6813F4003F03D06368002BB0
:1055E80000F07A81236813F0020F55D0874B9B682F
:1055F80013F00C0F3ED0854B9B6803F00C03082B6F
:1056080033D0E368002B68D0814B01221A60FEF783
:10561800A1FF05467D4B1B6813F0020F54D1FEF71E
:1056280099FF401B0228F5D9032058E1774A1368EF
:1056380043F480331360B5E7744B1A6842F4802250
:105648001A601A6842F480321A60ABE7FEF782FFEC
:1056580005466E4B1B6813F4003FC3D0FEF77AFF74
:10566800401B6428F5D9032039E1684B5B6813F4C3
:10567800800FC6D1654B1B6813F0020F04D0E36896
:10568800012B01D001202AE1604A136823F0F803B6
:10569800216943EAC1031360236813F0080F40D05F
:1056A800636963B35B4B01221A60FEF753FF05463B
:1056B800564B5B6F13F0020F33D1FEF74BFF401BC5
:1056C8000228F5D903200AE1504A136823F0F803A9
:1056D800216943EAC1031360DEE74D4B00221A60DB
:1056E800FEF738FF0546494B1B6813F0020FD3D06D
:1056F800FEF730FF401B0228F5D90320EFE0454BA9
:1057080000221A60FEF726FF0546404B5B6F13F038
:10571800020F06D0FEF71EFF401B0228F5D9032012
:10572800DDE0236813F0040F79D0384B1B6C13F0BD
:10573800805F33D100230193344B1A6C42F08052BE
:105748001A641B6C03F080530193019B0125324BB3
:105758001B6813F4807F23D0A368012B34D0052B5A
:1057680038D02A4B1A6F22F001021A671A6F22F0FA
:1057780004021A67A368002B36D0FEF7EBFE064634
:10578800224B1B6F13F0020F48D1FEF7E3FE801B7C
:1057980041F288339842F3D90320A0E00025D6E7E8
:1057A8001D4A136843F480731360FEF7D3FE064660
:1057B800194B1B6813F4807FCED1FEF7CBFE801BFC
:1057C8000228F5D903208AE0104A136F43F0010339
:1057D8001367CFE70D4B1A6F42F004021A671A6F6E
:1057E80042F001021A67C5E7FEF7B4FE0646074B0A
:1057F8001B6F13F0020F11D0FEF7ACFE801B41F2B5
:1058080088339842F3D9032069E000BF003802408A
:1058180000004742800E474200700040E5B9A36986
:10582800002B5BD0304A926802F00C02082A58D04C
:10583800022B17D02D4B00221A60FEF78BFE044670
:10584800294B1B6813F0007F42D0FEF783FE001B34
:105858000228F5D9032042E0234A136C23F0805331
:105868001364DCE7214B00221A60FEF773FE05463D
:105878001D4B1B6813F0007F06D0FEF76BFE401B24
:105888000228F5D903202AE0E369226A1343626AF1
:1058980043EA8213A26A5208013A43EA0243E26ADF
:1058A80043EA0263104A5360104B01221A60FEF764
:1058B80051FE04460C4B1B6813F0007F06D1FEF71F
:1058C80049FE001B0228F5D9032008E0002006E065
:1058D800002004E001207047012000E0002002B011
:1058E80070BD0120FBE700BF00380240600047425E
:1058F80008B5174B9B6803F00C03082B25D1144BF4
:105908005A6802F03F025B6813F4800F12D0104B04
:105918005968C1F3881100230E48A1FB0001FEF766
:105928004FFC0B4B5B68C3F3014301335B00B0FBD7
:10593800F3F008BD064B5968C1F3881100230548E8
:10594800A1FB0001FEF73CFCEBE70248F1E700BFD2
:1059580000380240001BB700002800F09D8070B599
:1059680004464F4B1B6803F00F038B4209D2CBB29E
:105978004B4A1370136803F00F038B4201D00120C8
:1059880070BD236813F0020F17D013F0040F04D072
:10599800444A936843F4E0539360236813F0080F74
:1059A80004D0404A936843F4604393603D4A936847
:1059B80023F0F003A068034393600D46236813F0B7
:1059C800010F32D06368012B21D09A1E012A25D9F4
:1059D800344A126812F0020F60D032498A6822F005
:1059E800030213438B60FEF7B5FD06462D4B9B68FB
:1059F80003F00C036268B3EB820F16D0FEF7AAFD22
:105A0800801B41F288339842F0D90320B8E7254A31
:105A1800126812F4003FE0D10120B1E7214A126870
:105A280012F0007FD9D10120AAE71D4B1B6803F0B3
:105A38000F03AB4209D9EAB2194B1A701B6803F07D
:105A48000F03AB4201D001209AE7236813F0040F3B
:105A580006D0144A936823F4E053E1680B4393603B
:105A6800236813F0080F07D00E4A936823F46043A5
:105A7800216943EAC1039360FFF73AFF094B9B682A
:105A8800C3F30313084AD35CD840084B18600020BE
:105A9800FEF716FD002073E70120704701206FE72D
:105AA800003C024000380240788E000810010020B7
:105AB800014B1868704700BF1001002008B5FFF7B8
:105AC800F7FF044B9B68C3F38223034AD35CD84097
:105AD80008BD00BF00380240888E000808B5FFF7EF
:105AE800E7FF044B9B68C3F34233034AD35CD840B7
:105AF80008BD00BF00380240888E00087047704714
:105B08007047704710B5044603681A6912F0020F0F
:105B180011D0DA6812F0020F0DD06FF002021A618C
:105B28000123037703689B6913F0030F70D0FFF715
:105B3800E6FF0023237723681A6912F0040F12D0B6
:105B4800DA6812F0040F0ED06FF004021A61022313
:105B5800237723689B6913F4407F5FD02046FFF7C3
:105B6800CEFF0023237723681A6912F0080F12D09A
:105B7800DA6812F0080F0ED06FF008021A610423D9
:105B880023772368DB6913F0030F4ED02046FFF715
:105B9800B6FF0023237723681A6912F0100F12D07A
:105BA800DA6812F0100F0ED06FF010021A61082395
:105BB80023772368DB6913F4407F3DD02046FFF745
:105BC8009EFF0023237723681A6912F0010F03D080
:105BD800DA6812F0010F36D123681A6912F0800FC3
:105BE80003D0DA6812F0800F34D123681A6912F0F2
:105BF800400F03D0DA6812F0400F32D123681A69D7
:105C080012F0200F03D0DA6812F0200F30D110BD47
:105C1800FFF774FF2046FFF773FF8AE72046FFF778
:105C28006DFF2046FFF76CFF9BE72046FFF766FFF6
:105C38002046FFF765FFACE72046FFF75FFF2046E9
:105C4800FFF75EFFBDE76FF001021A61204602F020
:105C5800BFFFC1E76FF080021A61204600F010F81C
:105C6800C3E76FF040021A612046FFF74AFFC5E715
:105C78006FF020021A61204600F001F8C7E770476C
:105C8800704700002DE9F84304460268136923F4BD
:105C98004053C1680B431361836802691343426927
:105CA8001343C2691A430168CB6823F4164323F0EF
:105CB8000C031343CB600268536923F44073816972
:105CC8000B435361C369B3F5004F60D00368B84A0A
:105CD800934200F0148102F58062934200F00F8134
:105CE800FFF7ECFE00EB800000EB80006568AD007C
:105CF800B0FBF5F5AF4FA7FB05356D092E01FFF792
:105D0800DDFE00EB800000EB80006568AD00B0FBB5
:105D1800F5F9FFF7D3FE00EB800000EB8000656823
:105D2800AD00B0FBF5F5A7FB05356D094FF064082C
:105D380008FB15952D013235A7FB05356D0905F0D2
:105D4800F0053544FFF7BAFE00EB800000EB800059
:105D58006668B600B0FBF6F6FFF7B0FE00EB800011
:105D680000EB800063689B00B0FBF3F0A7FB0030FA
:105D7800400908FB10684FEA081808F13208A7FB29
:105D88000837C7F3431723682F449F600DE1036862
:105D9800874A93425BD002F58062934257D0FFF75F
:105DA8008DFE00EB800000EB800065686D00B0FBA5
:105DB800F5F5804FA7FB05356D092E01FFF77EFE2F
:105DC80000EB800000EB800065686D00B0FBF5F922
:105DD800FFF774FE00EB800000EB800065686D0043
:105DE800B0FBF5F5A7FB05356D094FF0640808FB16
:105DF8001595ED003235A7FB05356D096D0005F4E5
:105E0800F8753544FFF75AFE00EB800000EB800080
:105E180066687600B0FBF6F6FFF750FE00EB8000F0
:105E280000EB800063685B00B0FBF3F3A7FB032380
:105E38005B0908FB13684FEAC80808F13208A7FB9A
:105E48000837C7F3421723682F449F60ADE0FFF778
:105E580045FE00EB800000EB800065686D00B0FB3C
:105E6800F5F5544FA7FB05356D092E01FFF736FEF2
:105E780000EB800000EB800065686D00B0FBF5F971
:105E8800FFF72CFE00EB800000EB800065686D00DA
:105E9800B0FBF5F5A7FB05356D094FF0640808FB65
:105EA8001595ED003235A7FB05356D096D0005F434
:105EB800F8753544FFF712FE00EB800000EB800018
:105EC80066687600B0FBF6F6FFF708FE00EB800088
:105ED80000EB800063685B00B0FBF3F3A7FB0323D0
:105EE8005B0908FB13684FEAC80808F13208A7FBEA
:105EF8000837C7F3421723682F449F6055E0FFF720
:105F0800EDFD00EB800000EB80006568AD00B0FBA4
:105F1800F5F5284FA7FB05356D092E01FFF7DEFDC6
:105F280000EB800000EB80006568AD00B0FBF5F980
:105F3800FFF7D4FD00EB800000EB80006568AD0042
:105F4800B0FBF5F5A7FB05356D094FF0640808FBB4
:105F580015952D013235A7FB05356D0905F0F005BE
:105F68003544FFF7BBFD00EB800000EB800066685E
:105F7800B600B0FBF6F6FFF7B1FD00EB800000EBD2
:105F8800800063689B00B0FBF3F0A7FB003040097A
:105F980008FB10684FEA081808F13208A7FB083711
:105FA800C7F3431723682F449F60BDE8F88300BFF9
:105FB800001001401F85EB51704758B310B50446D7
:105FC80090F839300BB3242384F839302268D36829
:105FD80023F40053D3602046FFF754FE2268136968
:105FE80023F4904313612268536923F02A03536111
:105FF8002268D36843F40053D3600020E063202371
:1060080084F8393084F83A3010BD80F83830FFF71A
:10601800D3FFD8E701207047002301330C4A93428D
:1060280011D80269002AF8DA036943F00103036111
:1060380000230133064A934207D8026912F0010F80
:10604800F7D100207047032070470320704700BF36
:10605800400D030084B010B5044603A880E80E0084
:10606800089B012B1FD1A36B23F48033A363E36840
:1060780023F4840323F04003E360E36823F440132C
:10608800E3600F9B012B09D02046FFF7C5FF069B55
:10609800012B1BD0BDE8104004B07047E36843F4FF
:1060A8008013E360F0E7E36843F04003E3602046D1
:1060B800FFF7B2FF0C9B23B9A36B43F48033A363B0
:1060C800E5E7A36B23F48033A363E0E7A36843F019
:1060D8000603A360A36843F02003A360DAE7000087
:1060E800032A0AD00921C26822F47052C260C36828
:1060F80043EA8123C360002070472A4B0B442A4A95
:1061080093423FD9294B0B44294A93423CD9A1F5E4
:106118007403A3F51053274A934237D9A1F1837327
:10612800A3F5E74302F5C332A032934230D9224B9C
:106138000B44224A93422DD9214B0B4402F592225B
:1061480002F57872934227D91E4B0B4402F5C322FD
:1061580002F52072934221D9A1F1B773A3F55853E0
:1061680002F5B71202F55872934219D9164B0B442F
:1061780002F5122202F5F862934201D90621B2E72C
:106188000721B0E70F21AEE70E21ACE70D21AAE702
:106198000C21A8E70B21A6E70A21A4E70921A2E719
:1061A8000821A0E7405327FFFF340C00401E1BFFC7
:1061B8003F420F007F4F120060B6E5FE5FE3160016
:1061C80000D3CEFEC05BB3FEE05459FE836843F0B3
:1061D8000103836000207047836823F00103836014
:1061E8000020704708B5C36823F0C043C360012985
:1061F80009D069B9C36843F08043C3603220FEF711
:10620800AFF9002008BDC36843F00053C360F5E749
:106218000120F7E7890141F02001016100230133E2
:10622800054A934205D8026912F0200FF7D10020E1
:1062380070470320704700BF400D0300102303611F
:1062480000230133054A934205D8026912F0100F62
:10625800F7D1002070470320704700BF400D0300AE
:10626800D0F800381943C0F8001800207047000023
:1062780084B02DE9F041044607A880E80E002546C1
:10628800002306E003F1400204EB82020021516082
:1062980001330E2BF6D9119BF3B9A36B43F400130A
:1062A800A363A36B23F40023A363A36B23F48023CA
:1062B800A3630023C4F8003E04F50066D4F8003850
:1062C800C4F800380C9B012B14D1099B6BB9002131
:1062D8002046FFF7C5FF11E0236823F4001323606D
:1062E800A36B43F40023A363E3E701212046FFF7F0
:1062F800B7FF03E003212046FFF7B2FF1021204635
:10630800FFF788FF804608B14FF001082046FFF7E5
:1063180095FF08B14FF00108002333617361F36101
:106328000AE0C3B94FF00060C2F8000900220A6110
:106338004FF67F328A6001330799994210D905EBED
:10634800431202F51061D2F800090028E9DB0020A9
:10635800C2F80009EAE74FF09040C2F80009E5E703
:1063680000230AE0BBB14FF09047C2F8007B00223F
:1063780002614FF67F3282600133994210D905EBF2
:10638800431202F53060D2F8007B002FEADB0027C9
:10639800C2F8007BEBE74FF00067C2F8007BE6E746
:1063A800336923F4807333610A9B012B1BD00022CD
:1063B800A2616FF0804262611BB9A36943F01003C8
:1063C800A361A269104B1343A3610D9B1BB1A36981
:1063D80043F00803A361119B012B0DD04046BDE893
:1063E800F04104B07047094A3263326B42F480329C
:1063F80042F003023263DAE7A36943F0804343F0D3
:106408000403A361EAE700BF00383C800001800074
:10641800D0F8083813F0060307D0022B07D0062B54
:1064280001D00020704703207047002070470320E8
:10643800704770B40B784A78012A22D0D0F81C280B
:1064480003F00F060124B44042EA0442C0F81C28B5
:1064580000EB4310D0F8003B13F4004F0ED1D0F8F6
:10646800003B8A68C2F30A02C97842EA81421343B0
:1064780043F0805343F40043C0F8003B002070BC55
:106488007047D0F81C4803F00F06B24092B222437E
:10649800C0F81C2800EB4310D0F8002912F4004F74
:1064A800ECD1D0F800298C68C4F30A04C97844EA0E
:1064B800814444EA8353134343F0805343F4004335
:1064C800C0F80039DAE7000070B40B784A78012A7E
:1064D8001FD0D0F83C5803F00F06012404FA06F642
:1064E80025EA0645C0F83C58D0F81C58097801F050
:1064F8000F018C4025EA0444C0F81C4800EB431007
:10650800D0F8002B124B1340C0F8003B002070BCA1
:106518007047D0F83C6803F00F0402FA04F4A4B200
:1065280026EA0404C0F83C48D0F81C48097801F071
:106538000F018A4092B224EA0202C0F81C2800EB3C
:106548004310D0F80039034A1A40C0F80029DDE7A3
:106558000078F3EF007833EC70B40B784C78012CAA
:1065680026D000EB431000F530631C69E40CE4040A
:106578001C611C6924F0FF5424F4C0141C614C698C
:106588000CB18C684C611C6944F400241C611C69C2
:106598008D68C5F312052C431C61012A5DD0D0F823
:1065A800003B43F00443C0F8003B002070BC704738
:1065B8004C6964BB00EB4314D4F8105925F0FF551F
:1065C80025F4C015C4F81059D4F8105945F400251D
:1065D800C4F81059D4F81059ED0CED04C4F810594A
:1065E800012A32D04A694AB1D0F83428097801F032
:1065F8000F040121A1400A43C0F8342800EB4310DE
:10660800D0F8002942F00442C0F80029CDE700EB99
:10661800431404F510642569ED0CED042561256922
:1066280025F0FF5525F4C01525614E698D68AE42E9
:1066380000D94D61256945F40025256125694E6914
:10664800C6F3120635432561CAE70A69002AD5D080
:1066580000EB4311C1F81429D0E7CA68002A9ED07C
:106668005A619CE770B49DF80C4064B903339D08E7
:1066780007E000EB023303F5805351F8046B1E600A
:106688000134AC42F5D3002070BC7047F0B583B03C
:106698000B784C78012C2BD000EB431303F53064B6
:1066A8002569ED0CED042561256925F0FF5525F4D4
:1066B800C01525614D69002D40F0AE8025698E68B2
:1066C800C6F3120635432561256945F40025256181
:1066D800012A00F0B680CA78012A00F0B880D3F801
:1066E800002B42F00442C3F8002B002003B0F0BD99
:1066F8004C69002C3DD100EB4314D4F8105925F017
:10670800FF5525F4C015C4F81059D4F8105945F4AC
:106718000025C4F81059D4F81059ED0CED04C4F84C
:106728001059012A59D0CC78012C0BD04C694CB1A6
:10673800D0F834480D7805F00F060125B5402C43F4
:10674800C0F83448CC78012C4FD000EB4313D3F871
:10675800004944F00444C3F80049CB78012BC4D164
:1067680014460B46C9681A789B8A0094FFF77AFF8B
:10677800BBE700EB4314D4F81059ED0CED04C4F852
:106788001059D4F8105925F0FF5525F4C015C4F850
:106798001059D4F810694D698F683D44013DB5FB27
:1067A800F7F5344F07EAC5453543C4F81059D4F80E
:1067B80010594E69C6F312063543C4F8105904F54A
:1067C8001064CD78012DACD1256925F0C04525612F
:1067D800256945F000552561A3E70C69002CB1D067
:1067E80000EB4315C5F81449ACE7D0F8084814F491
:1067F800807F08D100EB4315D5F8004944F00054D8
:10680800C5F80049A1E700EB4315D5F8004944F065
:106818008054C5F8004998E78E683544013DB5FBBA
:10682800F6F52669134F07EAC5473E4326612769EF
:106838008E68ADB206FB05F5C5F312053D4325612B
:1068480046E7CA68002A3FF446AF626143E7D0F8DA
:10685800082812F4807F06D1D3F8002B42F00052AA
:10686800C3F8002B3BE7D3F8002B42F08052C3F863
:10687800002B34E70000F81F0332920800239342EC
:106888000CD210B400F58054246841F8044B01334D
:106898009342F7D308465DF8044B704708467047A3
:1068A8000B784A78012A14D000EB4310D0F8002B5B
:1068B800002A06DB2BB1D0F8003B23F08043C0F858
:1068C800003BD0F8003B43F40013C0F8003B002025
:1068D800704700EB4310D0F80029002A06DB2BB1E3
:1068E800D0F8003923F08043C0F80039D0F80039D7
:1068F80043F40013C0F80039E9E70B784A78012A15
:106908000ED000EB4310D0F8003B23F40013C0F87E
:10691800003BCB78023BDBB2012B15D90020704736
:1069280000EB4310D0F8003923F40013C0F8003905
:10693800CB78023BDBB2012BF0D8D0F8003943F01A
:106948008053C0F80039E9E7D0F8003B43F08053A2
:10695800C0F8003BE2E7D0F8003823F4FE63C0F843
:106968000038D0F80038090101F4FE610B43C0F883
:1069780000380020704708B5D0F8043823F0020327
:10698800C0F804380320FDF7EBFD002008BD08B56A
:10699800D0F8043843F00203C0F804380320FDF7A8
:1069A800DFFD002008BD4269806910407047D0F8BB
:1069B800183800F50060C0691840000C7047D0F81E
:1069C800183800F50060C069184080B2704700EBC5
:1069D8004111D1F8082B00F500604069104070475C
:1069E80010B4D0F81048D0F8343801F00F02D34072
:1069F800DB01DBB2234300EB411000F51060806837
:106A080018405DF8044B7047406900F0010070477A
:106A1800D0F8003923F4FF6323F00703C0F80039E6
:106A280000F500639A6802F00602042A05D05A6845
:106A380042F480725A6000207047D0F8002942F072
:106A48000302C0F80029F2E710B4046C154B9C420D
:106A580003D9D0F8003B002B16DB0024C0F8104BFC
:106A6800D0F8104B44F40024C0F8104BD0F8104B69
:106A780044F01804C0F8104BD0F8104B44F0C04450
:106A8800C0F8104B012903D000205DF8044B704773
:106A9800C0F8142BD0F8003B43F08023C0F8003B2B
:106AA800F2E700BF0A30544F2223038000487047A2
:106AB80008000020D0F89032002083F8CC007047FE
:106AC8000A230380004870472C00002010B5D0F836
:106AD8009042012384F8CC30002303E0E15C084AAB
:106AE800D15401333F2BF9D94023064A138022465B
:106AF800012101F0FEFF002084F8CC0010BD00BF8A
:106B08004C020020E401002010B582B0D0F8904279
:106B18000023ADF806300B7813F0600329D0202B42
:106B28007AD14B78023B092B1FD8DFE803F0170A0C
:106B38001E1E1E1E1E1E11058B78C4F8C0300020B4
:106B48006DE0012204F1C00100F04EFD002066E076
:106B58004B881B0AC4F8C430002060E0012204F10D
:106B6800C40100F041FD002059E000F042FA022083
:106B780055E04B780B2B4BD8DFE803F0064A4A4A1E
:106B88004A4A154A4A4A2E3D90F87432032B06D1D8
:106B980002220DF1060100F027FD00203FE000F081
:106BA80028FA02203BE04B881B0A222B0AD0212B13
:106BB8000ED1CA88092A28BF09221A4900F014FDF3
:106BC80000202CE0CA88882A28BF88221649F5E7C1
:106BD80000F00FFA022022E090F87432032B06D15D
:106BE800012204F1C80100F0FFFC002017E000F0CA
:106BF80000FA022013E090F87432032B04D18B784A
:106C0800C4F8C83000200AE000F0F3F9022006E0DA
:106C180000F0EFF9022002E000F0EBF9022002B0E8
:106C280010BD00BFC00000203800002010B5044689
:106C3800812101F036FF0023E3620121204601F0A3
:106C480030FFD4F8900220B102F03CF80023C4F8D9
:106C58009032002010BD38B5044604230322812158
:106C680001F014FF0121E16240230322204601F0D4
:106C78000DFFD02002F01EF8C4F8900250B1002594
:106C880080F8CC50402302460121204601F031FF14
:106C9800284638BD0120FCE738B5D0F8905290F866
:106CA8007442032C01D0002038BD95F8CC30002B5D
:106CB800F9D113460A46012185F8CC10812101F04B
:106CC80010FFF0E798B108B50346D0F88C0210B170
:106CD8000020C3F88C0209B1C3F8881218460123B2
:106CE80080F87432027001F075FE002008BD0220A1
:106CF800704719B1C0F88C12002070470220704705
:106D080008B501F0BBFE002008BD08B5D0F88C32EC
:106D180033B11B68984708B9002008BD0220FCE77A
:106D28000220FAE708B5D0F88C325B689847002053
:106D380008BD38B5044600F52075284600F045F929
:106D48000123C4F86C32B4F88632C4F8703294F86F
:106D5800801201F01F03012B0ED03BB1022B10D083
:106D680001F08001204601F0A4FE03E029462046F8
:106D780000F0B5FA002038BD2946204600F0E3FAB5
:106D8800F8E72946204600F00EFBF3E738B504463D
:106D9800A1BB1046D4F86C32032B03D0052B24D0AA
:106DA800002037E0D4F84C31D4F8502193420DD963
:106DB8009B1AC4F84C319A4206D99AB20146204629
:106DC80000F027FC002025E092B2F7E7D4F88C32D7
:106DD8001B692BB194F87422032A01D120469847E5
:106DE800204600F01EFC002014E00025C4F86C5278
:106DF8002946204601F05DFE28460BE00A46D0F8F9
:106E08008C329B693BB190F87412032905D1114665
:106E18009847002038BD0220FCE70220FAE710B5A9
:106E28000446002953D11046D4F86C32022B0CD0FA
:106E3800042B00D01BB98021204601F03AFE94F8BB
:106E48007832012B3FD000204DE0236A626A9342DA
:106E58001DD8E169B1FBF2F302FB13132BB98A4287
:106E680003D8D4F8703299421FD3D4F88C32DB6837
:106E78002BB194F87422032A01D120469847802127
:106E8800204601F016FE204600F0D6FBD7E79A1AF6
:106E9800226292B20146204600F0B3FB00231A4654
:106EA8001946204601F025FEC9E700221146204672
:106EB80000F0A7FB0021C4F870120B460A462046D2
:106EC80001F017FEBBE7002084F878020BE00A46C1
:106ED800D0F88C325B693BB190F87412032905D164
:106EE80011469847002010BD0220FCE70220FAE76F
:106EF80070B5044640230022114601F0C7FD012564
:106F0800C4F844514026C4F8506133460022802119
:106F1800204601F0BBFDA561666284F87452002327
:106F2800C4F86C326360C4F87C32D4F890322BB168
:106F3800D4F88C325B68002120469847002070BD49
:106F480001740020704790F8743280F87532042379
:106F580080F874320020704790F8753280F87432E7
:106F68000020704708B590F87432032B01D0002038
:106F780008BDD0F88C32DB69002BF8D09847F6E7CB
:106F880000207047002070470020704708B5012294
:106F980080F87422D0F88C2252680179904700203A
:106FA80008BD002302E00133DBB201300278002A79
:106FB800F9D11846704708B54B88012B00D008BD99
:106FC800C0F87C3200F02DFBF9E70B7803704B78A2
:106FD80043708B78CA7803EB022343800B794A7994
:106FE80003EB022383808B79CA7903EB0223C380E6
:106FF800704710B50446802101F05BFD0021204652
:1070080001F057FD10BD30B583B005460C464A88DF
:10701800130A013B062B00F28480DFE803F0041614
:107028002A8282667300D0F888321B680DF1060147
:10703800007C9847BDF8062012B1E388002B74D174
:10704800E388002B7BD003B030BD037C43B9D0F874
:107058008C329B6A0DF10600984702234370E9E7DA
:10706800D0F88C32DB6A0DF1060098470223437092
:10707800E0E7D2B2052A34D8DFE802F0030B131B8D
:10708800232BD0F888325B680DF10601007C984705
:10709800D0E7D0F888329B680DF10601007C98474C
:1070A800C8E7D0F88832DB680DF10601007C984704
:1070B800C0E7D0F888321B690DF10601007C9847BB
:1070C800B8E7D0F888325B690DF10601007C984773
:1070D800B0E7D0F888329B690DF10601007C98472B
:1070E800A8E72146FFF785FFADE7037C33B9D0F861
:1070F8008C325B6B0DF1060098479BE72146FFF742
:1071080078FFA0E7037C43B9D0F88C321B6B0DF1F4
:1071180006009847072343708CE72146FFF769FF6D
:1071280091E72146FFF765FF8DE79A4228BF1A4687
:10713800ADF806200146284600F056FA80E72846B2
:1071480000F06FFA7FE738B504468B88F3B9CB882F
:10715800E3B94B887F2B19D803F07F0590F8743278
:10716800032B0CD080F87652294601F0B2FC204659
:1071780000F057FA35B1022384F8743209E0FFF7BA
:1071880038FF06E0012384F8743202E02046FFF756
:1071980030FF38BD38B504460D468978284B19703C
:1071A80001290ED890F87432022B0ED0032B21D06F
:1071B8002946FFF71EFF224B19782046FFF7B2FD3C
:1071C80002E02946FFF715FF38BD81B1416003236E
:1071D80080F87432FFF799FD022803D0204600F0AA
:1071E80020FAF1E729462046FFF703FFECE700F015
:1071F80018FAE9E789B1436899421DD0D9B2FFF777
:1072080091FD0F4B197861602046FFF77EFD02283B
:107218000DD0204600F005FAD6E7022380F8743234
:107228004160FFF77FFD204600F0FBF9CCE72946D7
:107238002046FFF7DEFEC7E700F0F3F9C4E700BF1A
:10724800E601002008B5CB88012B0BD190F87432E9
:107258009BB1022B09D9032B0FD10122011D00F08C
:10726800C3F901E0FFF7C5FE08BD0146002341F858
:10727800083F012200F0B8F9F6E7FFF7BAFEF3E796
:1072880008B590F87432013B022B12D8CB88022B38
:107298000CD10123C360D0F87C320BB10323C36047
:1072A800022200F10C0100F09FF908BDFFF7A1FED2
:1072B800FBE7FFF79EFEF8E708B590F87432013B4C
:1072C800022B09D84B88012B00D008BD0023C0F839
:1072D8007C3200F0A6F9F8E7FFF78BFEF5E708B572
:1072E8000B7803F06003202B05D0402B03D043B16B
:1072F800FFF77FFE03E0D0F88C329B6898470020A8
:1073080008BD4B78092B1BD8DFE803F011171A14B6
:107318001A08051A0E0BFFF776FEF0E7FFF713FFC2
:10732800EDE7FFF737FFEAE7FFF78CFFE7E7FFF73F
:10733800A7FFE4E7FFF73FFEE1E7FFF7BDFFDEE762
:10734800FFF757FEDBE738B505460C460B7803F028
:107358006003202B06D0402B04D01BB1FFF749FE59
:10736800002038BD95F87432013B022B16D82379DA
:10737800012B0ED8D5F88C329B68214628469847B1
:10738800E388002BECD10028EAD1284600F049F91F
:10739800E6E721462846FFF72CFEE1E72146284686
:1073A800FFF727FEDCE738B504468A880B7803F038
:1073B8006003202B08D0D0B2402B05D05BB120460B
:1073C800FFF717FE002005E0D4F88C329B682046B2
:1073D8009847002038BD202B05D1D4F88C329B6803
:1073E80020469847F6E74B78012B32D0002B5ED029
:1073F800032B40F0D68094F87432022B06D0032B6E
:1074080016D02046FFF7F5FD0020E3E708B18028F5
:1074180004D12046FFF7EDFD0020DBE701462046BA
:1074280001F047FB8021204601F043FB0020D1E713
:107438004B8823B918B1802801D0CB8823B12046C6
:1074480000F0EFF80020C5E70146204601F031FBC7
:10745800F5E794F87432022B06D0032B16D0204699
:10746800FFF7C7FD0020B5E708B1802804D1204602
:10747800FFF7BFFD0020ADE70146204601F019FBEC
:107488008021204601F015FB0020A3E74B88002B44
:1074980040F08C8010F07F0F04D1204600F0C1F836
:1074A800002097E70146204601F00BFBF5E794F82A
:1074B8007432022B06D0032B29D02046FFF799FD02
:1074C800002087E708B1802812D112F0800F14D16C
:1074D80000F07F0000EB8000830003F5A073E11843
:1074E80000250D600222204600F07EF8284671E74C
:1074F8002046FFF77EFD00206CE700F07F0000EBE0
:107508008000830003F1100121440431E8E752B2FE
:10751800002A1EDB00F00F0303EB83039D002544C4
:10752800D5F844311BB3002A26DB00F07F0202EBBA
:107538008202930003F5A073E51808B1802825D1CD
:1075480000232B6002222946204600F04DF8002037
:1075580040E700F00F0303EB83039D002544AB696C
:10756800002BE0D12046FFF744FD002032E72046FB
:10757800FFF73FFD00202DE700F07F0202EB8202BB
:10758800930003F1100525440435D6E7014620464B
:1075980001F054FA10B101232B60D3E700232B60CC
:1075A800D0E72046FFF725FD002013E7002011E76C
:1075B800C8B170B50D4616460446FFF7F2FC013017
:1075C80040003080287003236B70022307E00134E9
:1075D8005A1CD2B2E9540233DBB20021A9542178F3
:1075E8000029F4D170BD704710B513460222C0F8C7
:1075F8006C22C36103620A46002101F072FA00207E
:1076080010BD08B513460A46002101F06AFA0020A9
:1076180008BD08B513460A46002101F06AFA0020A1
:1076280008BD08B50423C0F86C3200231A46194671
:1076380001F057FA002008BD08B50523C0F86C32E0
:1076480000231A46194601F054FA002008BD00002C
:1076580000B583B0002301930D4A116C41F48021D9
:107668001164126C02F480220192019A09480A4AB4
:1076780002604FF4E13242608360C36003610C2210
:1076880042618361C361FEF798FC03B05DF804FBB7
:10769800003802404C0300200048004000B583B089
:1076A800002301930E4A116C41F400211164126CFD
:1076B80002F400220192019A0A480B4A02604FF430
:1076C800614242608360C3604FF4806202610C22B1
:1076D80042618361C361FEF770FC03B05DF804FB8F
:1076E8000038024058140020004C004000B587B014
:1076F800002302930493059301910123039301A9A5
:10770800FDF79AF807B05DF804FB00B587B00023D1
:10771800029303930493059306AB43F8141D19468B
:10772800FDF78AF807B05DF804FB00B587B00023C1
:1077380003930493059301911123029301A9FDF783
:107748007BF807B05DF804FB00B587B0002303930E
:107758000493059301910123029301A9FDF76CF8A5
:1077680007B05DF804FB000000B587B04FF4406334
:107778000193022302930123039303230493082311
:10778800059301A90248FDF757F807B05DF804FB17
:10779800000802402DE9F04186B000220092AC4B6F
:1077A800196B41F001011963196B01F00101009196
:1077B80000990192196B41F002011963196B01F0EC
:1077C8000201019101990292196B41F004011963B8
:1077D800196B01F00401029102990392196B41F0AF
:1077E80008011963196B01F00801039103990492C8
:1077F800196B41F010011963196B01F01001049124
:10780800049905921A6B42F080021A631B6B03F00D
:1078180080030593059B8F4D01212846FFF766FFDE
:1078280004212846FFF790FF8B4C10212046FFF7D4
:107838006CFF4FF480512046FFF758FF4FF480410A
:107848002846FFF753FF02212846FFF74FFF834FD3
:107858004FF400713846FFF749FF4FF4806138460E
:10786800FFF744FF01224FF400512046FDF7CFF8FF
:1078780001224FF480412046FDF7C9F801224FF458
:1078880000412046FDF7C3F84FF460412046FFF75A
:107898004CFF734E4FF400413046FFF727FF02219B
:1078A8003046FFF723FF08213046FFF71FFF02216C
:1078B8003846FFF71BFF08213846FFF717FF8021DE
:1078C8003846FFF713FF20213046FFF70FFFDFF898
:1078D800948102214046FFF709FF4FF400712046CA
:1078E800FFF704FF4FF480612046FFF7FFFE4FF4D7
:1078F80000612046FFF7FAFE20212046FFF7F6FE3A
:107908004FF400513046FFF7F1FE01213046FFF7F2
:10791800EDFE04213046FFF7E9FE01213846FFF766
:10792800E5FE04213846FFF7E1FE40213846FFF71F
:10793800DDFE10213046FFF7D9FE01214046FFF752
:10794800D5FE80212046FFF7D1FE4FF480712046F6
:10795800FFF7CCFE40212046FFF7C8FE4FF48041D8
:107968003046FFF7C3FE4FF400512846FFF7BEFE2E
:107978004FF400612846FFF7B9FE4FF4007128461E
:10798800FFF7B4FE40214046FFF7B0FE4FF4807188
:107998004046FFF7ABFE01212046FFF7A7FE202156
:1079A8002846FFF7A3FE80212846FFF79FFE4FF4E5
:1079B80080713046FFF79AFE40213046FFF796FE69
:1079C8004FF480713846FFF791FE4FF480512846F6
:1079D800FFF78CFE4FF480612846FFF787FE4FF4CF
:1079E80080712846FFF782FE80214046FFF77EFE21
:1079F8004FF400714046FFF779FE02212046FFF759
:107A080075FE40212846FFF771FE10214046FFF71A
:107A18006DFE80213046FFF769FE4FF4004128468D
:107A2800FFF764FE4FF400713046FFF75FFE042154
:107A38002046FFF75BFE08212046FFF757FE20216E
:107A48004046FFF753FEFFF78FFE06B0BDE8F08112
:107A580000380240000C02400010024000000240C2
:107A6800000802400004024030B587B000230293AA
:107A780003930493059378B9102501950123029384
:107A8800094C01A92046FCF7D7FE002229462046CA
:107A9800FCF7BDFF07B030BD06A9102341F8143D1F
:107AA8000148FCF7C9FEF5E700100240F8B5B44DEF
:107AB8004FF400412846FCF7A3FFB0FA80F04009D4
:107AC800B04C207002212846FCF79AFFB0FA80F0EB
:107AD8004009607008212846FCF792FFB0FA80F050
:107AE8004009A070A84E02213046FCF789FFB0FA81
:107AF80080F04009E07008213046FCF781FFB0FAB9
:107B080080F04009207180213046FCF779FFB0FAF7
:107B180080F04009607120212846FCF771FFB0FA17
:107B280080F04009A07106F5806602213046FCF716
:107B380067FFB0FA80F04009E071944F4FF400718C
:107B48003846FCF75DFFB0FA80F04009207220212A
:107B58003846FCF755FFB0FA80F0400960724FF4E0
:107B680000512846FCF74CFFB0FA80F04009A0729B
:107B780020213046FCF744FFB0FA80F04009E0725B
:107B8800237B0BB1637BCBB9804C4FF480612046DB
:107B9800FFF7CBFD00224FF480612046FCF737FF4A
:107BA800784B00229A73774B01221A74784B1B7812
:107BB800032B53D8DFE803F00C5884B84FF48061E6
:107BC8003846FCF71DFFB0FA80F04009A073EAE7D9
:107BD80040217048FCF714FFB0FA80F04009694C66
:107BE800E0746D4D4FF400712846FCF709FFB0FAB8
:107BF80080F0400920754FF400612846FCF700FF2B
:107C0800B0FA80F040096075E27CA3799B0143EAF1
:107C1800C2135BB2627943EA42135BB2227943EA48
:107C280002135BB2227843EAC2035BB2627843EA8A
:107C380082035BB2A27843EA42035BB2E278134361
:107C48006374A27A637A9B0043EAC2035BB2627DE3
:107C580043EA42035BB2227D1343A37403224F49D4
:107C68004F48FFF719F8F8BD464AD17993799B0137
:107C780043EAC1135BB2517943EA41135BB211790C
:107C880043EA01135BB2117843EAC1035BB251784E
:107C980043EA81035BB2917843EA41035BB2D1784E
:107CA8000B435374917A537A9B0043EAC1035BB246
:107CB800917B43EA41035BB2117A0B439374CDE79E
:107CC80080213548FCF79CFEB0FA80F040092D4A27
:107CD8009075D17993799B0143EAC1135BB25179CD
:107CE80043EA41135BB2117943EA01135BB211789D
:107CF80043EAC1035BB2517843EA81035BB29178EE
:107D080043EA41035BB2D1780B435374917A537AB7
:107D18009B0043EAC1035BB2917D43EA41035BB236
:107D2800117A0B43937499E7164AD17993799B0199
:107D380043EAC1135BB2517943EA41135BB211794B
:107D480043EA01135BB2117843EAC1035BB251788D
:107D580043EA81035BB2917843EA41035BB2D1788D
:107D68000B435374917A537A9B0043EAC1035BB285
:107D7800D17A43EA41035BB2117A0B4393746DE7FE
:107D880000080240E8010020000002400010024004
:107D98009914002000040240000C0240F801002061
:107DA8009C14002070B5BF4E01213046FCF728FE18
:107DB800B0FA80F04009BC4CE07504213046FCF76D
:107DC8001FFEB0FA80F040092076B84D0121284600
:107DD800FCF716FEB0FA80F04009607604212846C8
:107DE800FCF70EFEB0FA80F04009A0764021284644
:107DF800FCF706FEB0FA80F04009E0761021304624
:107E0800FCF7FEFDB0FA80F0400920770121A84870
:107E1800FCF7F6FDB0FA80F04009607705F580556B
:107E280080212846FCF7ECFDB0FA80F04009A077E5
:107E38004FF480712846FCF7E3FDB0FA80F0400962
:107E4800E07740212846FCF7DBFDB0FA80F04009D6
:107E580084F820004FF480413046FCF7D1FDB0FA99
:107E680080F0400984F8210008212846FCF7C8FD65
:107E7800B0FA80F0400984F82200237B0BB1637BC1
:107E8800E3B98C4C4FF400612046FFF74EFC00220A
:107E98004FF400612046FCF7BAFD834B002283F8BB
:107EA8002320814B02221A74834B1B78032B5DD845
:107EB800DFE813F00F0062009100C9004FF4006181
:107EC8002846FCF79DFDB0FA80F0400984F82300AD
:107ED800E7E74FF480717648FCF792FDB0FA80F03E
:107EE8004009714C84F8240001217248FCF788FD90
:107EF800B0FA80F0400984F825004FF48071694891
:107F0800FCF77EFDB0FA80F0400984F8260094F86A
:107F18002420637F9B0143EAC2135BB2227F43EABA
:107F280042135BB2E27E43EA02135BB2E27D43EAAC
:107F3800C2035BB2227E43EA82035BB2627E43EAFB
:107F480042035BB2A27E1343637494F8212094F831
:107F580020309B0043EAC2035BB294F8262043EA30
:107F680042035BB294F825201343A37403225349B8
:107F78005348FEF791FE70BD4B4A917F537F9B019A
:107F880043EAC1135BB2117F43EA41135BB2D17E6E
:107F980043EA01135BB2D17D43EAC1035BB2117EB0
:107FA80043EA81035BB2517E43EA41035BB2917EAF
:107FB8000B43537492F8211092F820309B0043EA47
:107FC800C1035BB292F8231043EA41035BB2D17F4D
:107FD8000B439374CAE710213548FCF711FDB0FA3A
:107FE80080F04009304A82F82700917F537F9B0137
:107FF80043EAC1135BB2117F43EA41135BB2D17EFE
:1080080043EA01135BB2D17D43EAC1035BB2117E3F
:1080180043EA81035BB2517E43EA41035BB2917E3E
:108028000B43537492F8211092F820309B0043EAD6
:10803800C1035BB292F8271043EA41035BB2D17FD8
:108048000B43937492E7184A917F537F9B0143EA4D
:10805800C1135BB2117F43EA41135BB2D17E43EA9D
:1080680001135BB2D17D43EAC1035BB2117E43EADF
:1080780081035BB2517E43EA41035BB2917E0B43BD
:10808800537492F8211092F820309B0043EAC10300
:108098005BB292F8221043EA41035BB2D17F0B43F3
:1080A800937463E700080240E801002000000240E2
:1080B800000402400010024099140020F80100203A
:1080C8009C14002070B56A4D4FF400512846FCF707
:1080D80097FCB0FA80F04009664C84F828004FF409
:1080E80000612846FCF78CFCB0FA80F04009607506
:1080F8004FF400712846FCF783FCB0FA80F0400981
:1081080020755D4E40213046FCF77AFCB0FA80F0CD
:108118004009E0744FF480713046FCF771FCB0FA06
:1081280080F0400984F8240001215448FCF768FCD9
:10813800B0FA80F0400984F8250020212846FCF791
:108148005FFCB0FA80F0400984F8290080212846B5
:10815800FCF756FCB0FA80F04009A075A5F58065DB
:108168004FF480712846FCF74BFCB0FA80F04009C8
:1081780084F8260040212846FCF742FCB0FA80F03B
:10818800400984F82A004FF480713D48FCF738FC18
:10819800B0FA80F0400984F82B0003232374394B8C
:1081A8001B78032B07D8DFE803F0020C375E314B4E
:1081B80000225A749A74032233493448FEF76CFD3E
:1081C80070BD2C4A917D92F829309B0143EAC11376
:1081D8005BB292F8251043EA41135BB292F824107F
:1081E80043EA01135BB292F8281043EAC1035BB279
:1081F800517D43EA81035BB2117D43EA41035BB2DF
:10820800D17C0B43537492F82A1092F826309B00C5
:1082180043EAC1039374CEE7164A92F8291092F8FC
:1082280025305B0143EA81135BB292F8241043EADC
:1082380001135BB292F8281043EAC1035BB2517D87
:1082480043EA81035BB2117D43EA41035BB2D17C0F
:108258000B43537492F82A1092F826309B0043EA95
:10826800C1039374A7E7034B00225A749A74A2E7D8
:10827800000C0240E8010020000402400010024007
:108288000000024099140020F80100209C140020EE
:1082980070B5704D4FF480512846FCF7B1FBB0FA29
:1082A80080F040096C4C84F82C004FF4806128461B
:1082B800FCF7A6FBB0FA80F0400984F82D004FF4D3
:1082C80080712846FCF79CFBB0FA80F0400984F8DE
:1082D8002E00624E80213046FCF792FBB0FA80F007
:1082E800400984F82F004FF400713046FCF788FBF2
:1082F800B0FA80F0400984F8300002215848FCF7B1
:108308007FFBB0FA80F0400984F83100402128460C
:10831800FCF776FBB0FA80F0400984F832001021AF
:108328003046FCF76DFBB0FA80F0400984F827006E
:1083380006F5806680213046FCF762FBB0FA80F0D3
:10834800400984F833004FF400412846FCF758FBF5
:10835800B0FA80F0400984F834004FF400713046D8
:10836800FCF74EFBB0FA80F0400984F8350004238E
:1083780023743C4B1B78032B07D8DFE803F0020C6F
:108388003B65354B00225A749A74032236493748A4
:10839800FEF782FC70BD304A92F8271092F832300E
:1083A8009B0143EAC1135BB292F8311043EA4113CF
:1083B8005BB292F8301043EA01135BB292F82C10CA
:1083C80043EAC1035BB292F82D1043EA81035BB222
:1083D80092F82E1043EA41035BB292F82F100B4338
:1083E800537492F8341092F833309B0043EAC10377
:1083F8009374CAE7184A92F8321092F831305B0148
:1084080043EA81135BB292F8301043EA01135BB27E
:1084180092F82C1043EAC1035BB292F82D1043EA9C
:1084280081035BB292F82E1043EA41035BB292F8E3
:108438002F100B43537492F8341092F833309B008A
:1084480043EAC1039374A0E7034B00225A749A7459
:108458009BE700BF000C0240E80100200004024036
:108468000010024099140020F80100209C140020FC
:1084780030B595B03022002108A800F02BFC00246C
:108488000394049405940694079401941C4B1A6C65
:1084980042F080521A641B6C03F080530193019BD5
:1084A8000294184B1A6842F480421A601B6803F45D
:1084B80080430293029B012308934FF4803309936E
:1084C80002250E954FF480030F9306231093A823DB
:1084D800119312950723139308A8FDF73DF80F236E
:1084E8000393049505944FF4A05306934FF48053D7
:1084F8000793052103A8FDF72FFA15B030BD00BF7B
:10850800003802400070004008B5FBF7FDFFFFF798
:10851800AFFF3220FCF724F8FFF73CF900F08AF9A6
:10852800FFF796F8FFF7BAF801227D4B1A7045233A
:108538007C490B707C490A707C4A13707C4B002282
:108548001A704FF4FA70FCF70BF84FF48061794811
:10855800FCF756FA00284ED04FF400617548FCF736
:108568004FFA002849D00123734C63734FF48051AC
:108578007048FCF745FAB0FA80F0400920736F4D57
:108588004FF480412846FCF73BFAB0FA80F04009E6
:1085980084F8370002212846FCF732FAB0FA80F056
:1085A800400984F83800A5F540654FF40071284665
:1085B800FCF726FAB0FA80F0400984F839004FF445
:1085C80080612846FCF71CFAB0FA80F0400984F86C
:1085D8003A0094F8372094F8383043EA4203584A6E
:1085E800137094F83A30DBB284F83B3094F83B00CF
:1085F800FFF73AFA1BE00023B6E70023B4E74E4B37
:10860800012283F83B2093F83B2004214B48FCF7D8
:10861800FEF90020FFF728FA474C94F83B20042184
:108628004648FCF7F4F994F83B00FFF71DFAFFF70A
:108638003DFAFFF7B7FBFFF745FDFFF729FE0121DC
:108648003E48FCF7DDF9003018BF01203D4B18719A
:108658001B79002BE0D1384B0022DA630520FBF7A9
:108668007FFF354BDA6B0132DA6393F83B30002B2E
:10867800C5D001213148FCF7C3F9003018BF0120EB
:10868800304B18711B79002BE8D02B4BDB6B632B1D
:108698001DDD294BDB6B642B03DD274BDB6BC72B05
:1086A80029DD254BDB6BB3F5C87FB5DD224B0024F4
:1086B80083F83B4093F83B2004212048FCF7A7F9B6
:1086C8002046FFF7D1F90520FBF74AFFA4E7194C2C
:1086D80000224FF400412046FCF799F96420FBF78B
:1086E8003FFF01224FF400412046FCF790F9052096
:1086F800FBF736FF90E70F4C00224FF4005120465D
:10870800FCF785F96420FBF72BFF01224FF4005199
:108718002046FCF77CF90520FBF722FF7CE700BF29
:10872800CC020020E1030020E003002048030020E1
:108738004C02002000100240E8010020000C02401A
:1087480099140020040100207047000082B0002125
:1087580000910B4B5A6C42F480425A645A6C02F4F2
:1087680080420092009A01911A6C42F080521A6479
:108778001B6C03F080530193019B02B0704700BF4C
:10878800003802407047FEE7FEE7FEE7FEE7704765
:108798007047704708B5FBF7D1FE08BD08B5024819
:1087A800FCF702FB08BD00BF3817002008B50346D8
:1087B8000B4A126842B10A4A106803446A46934257
:1087C80006D8074A136008BD054A06491160F2E752
:1087D80000F046FA0C2303604FF0FF30F3E700BFC8
:1087E80038020020681F00200E49D1F8883043F471
:1087F8007003C1F888300C4B1A6842F001021A6005
:10880800002098601A6822F0847222F480321A607C
:10881800064A5A601A6822F480221A60D860044B0B
:108828008B60704700ED00E00038024010300024F3
:108838000040000808B500220B490C48FEF742FA30
:1088480048B90B490948FEF754FA38B90748FEF702
:1088580057FA30B908BDFFF777FFF2E7FFF774FF63
:10886800F4E7FFF771FFF5E7480100209C140020AA
:10887800CC0000200368B3F1A04F00D0704730B59A
:1088880089B000250195184C236B43F0010323633D
:10889800236B03F001030193019B4FF4C05303932F
:1088A800022304930595032306930A23079303A938
:1088B8000E48FBF7C1FF636B43F0800363630295C7
:1088C800636C43F480436364636C03F480430293F2
:1088D800029B2A4629464320FBF768FE4320FBF704
:1088E80099FE09B030BD00BF0038024000000240C8
:1088F80008B500F57171D0F80404FEF71AFA08BD3E
:1089080008B5C1EBC10293000344D3F80822D0F89C
:108918000404FEF73BFA08BD08B5C1EBC102930099
:1089280003449A6CD0F80404FEF779FA08BD08B538
:10893800D0F80404FEF716FB08BD10B50446C3685A
:108948002BB1022B0DD0FFF7FFFE012100E0002123
:10895800D4F80404FEF7F4FAD4F80404FEF7C8FACD
:1089680010BD0121F4E7000010B50446D0F8040456
:10897800FEF7E9FA2268D2F8003E43F00103C2F894
:10898800003E236A23B1034A136943F006031361C7
:1089980010BD00BF00ED00E008B5D0F80404FEF7F4
:1089A800DBFA08BD08B5D0F80404FEF7EBFA08BDF9
:1089B80008B5D0F80404FEF7E3FA08BD08B5D0F806
:1089C8000404FEF7E1FA08BD08B5D0F80404FEF780
:1089D800DDFA08BD03780BB10020704710B50346D7
:1089E8001548C0F80434C3F898024FF0A043036058
:1089F800042343600222C260002303618261C361D1
:108A080003624362C3620363FCF771F880B90A4CDE
:108A180080212046FCF79AFD402200212046FCF7E1
:108A280071FD802201212046FCF76CFD002010BD5D
:108A3800FFF78AFEEBE700BF38170020D0F898321E
:108A480011F0800F08D101F07F01C1EBC1018A004C
:108A5800134493F8FE01704701F07F01C1EBC10197
:108A68008A00134493F83E00704718B1022803D0D7
:108A780002207047002070470120704708B5D0F8E1
:108A88009802FCF7BEF8FFF7F0FF08BD10B51C46CA
:108A980013462246D0F89802FCF7ECFBFFF7E5FFF7
:108AA80010BD08B5D0F89802FCF725FCFFF7DDFFEC
:108AB80008BD08B5D0F89802FCF7ACFCFFF7D5FF65
:108AC80008BD08B5D0F89802FCF7E5FCFFF7CDFF24
:108AD80008BD08B5D0F89802FCF7B8FBFFF7C5FF4A
:108AE80008BD08B5D0F89802FCF76AFCFFF7BDFF8F
:108AF80008BD08B5D0F89802FCF734FCFFF7B5FFBD
:108B080008BD000012230B800048704714010020A4
:108B180004230B8000487047280100201A230B808B
:108B2800004870472C01002008B50A4628B10549BD
:108B38000548FEF73DFD034808BD02490248FEF717
:108B480037FDF8E7401B0020908E000810B5044C54
:108B58000A4621460348FEF72BFD204610BD00BFFC
:108B6800401B00209C8E000808B50A4628B105491C
:108B78000548FEF71DFD034808BD02490248FEF7F7
:108B880017FDF8E7401B0020A88E000808B50A4624
:108B980028B105490548FEF70BFD034808BD024901
:108BA8000248FEF705FDF8E7401B0020B48E0008D8
:108BB80008B50248FBF752FD08BD00BF601D002044
:108BC80008B50248FCF79EFF08BD00BFDC1D002069
:108BD8000A48002343610A4A13600A4B1B68D96894
:108BE80021F00101D96008490968D1620121516168
:108BF8006FF001021A610174704700BF201E002047
:108C080000000140DC1D00201C1E0020DFF834D0CD
:108C1800002103E00C4B5B58435004310B480C4BCC
:108C280042189A42F6D30B4A02E0002342F8043B6A
:108C3800094B9A42F9D3FFF7D7FD00F017F8FFF771
:108C480063FC704700000220D48E0008000000205A
:108C5800C8010020C8010020641F0020FEE70000B2
:108C6800014B1868704700BF6401002070B50D4EB5
:108C78000D4CA41BA4100025A54209D10B4E0C4C89
:108C880000F0EAF8A41BA4100025A54205D170BD88
:108C980056F8253098470135EEE756F825309847BD
:108CA8000135F2E7CC8E0008CC8E0008CC8E000887
:108CB800D08E0008024B0146186800F061B800BF6A
:108CC80064010020024B0146186800F00BB800BF91
:108CD8006401002002440346934200D1704703F820
:108CE800011BF9E738B50546002945D051F8043C81
:108CF8000C1F002BB8BFE41800F0ACF81F4A13682B
:108D0800104633B9636014602846BDE8384000F067
:108D1800A2B8A3420CD921686218934204BF1A680A
:108D28005B68636004BF521822600460ECE7134676
:108D38005A680AB1A242FAD919685818A0420BD148
:108D480020680144581882421960DDD110685268C1
:108D58005A6001441960D7E702D90C232B60D3E786
:108D6800206821188A4204BF11685268626004BFF3
:108D7800091821605C60C7E738BD00BF40020020C9
:108D880070B5CD1C25F0030508350C2D38BF0C2512
:108D9800002D064601DBA94203D90C2333600020CD
:108DA80070BD00F057F8214A1468214691B9204C4B
:108DB80023681BB9304600F03DF82060294630464C
:108DC80000F038F8431C24D10C233360304600F0FF
:108DD80042F8E4E70B685B1B18D40B2B0FD90B6028
:108DE800CD50CC18304600F036F804F10B00231DA6
:108DF80020F00700C31AD3D05A42E250D0E78C4281
:108E08004B6816BF636013600C46EBE70C46496875
:108E1800CCE7C41C24F00304A04205D0211A304634
:108E280000F008F80130CFD02560DBE740020020D1
:108E38004402002038B5064C002305460846236046
:108E4800FFF7B4FC431C02D1236803B12B6038BD83
:108E5800601F002070477047F8B500BFF8BC08BC19
:108E68009E467047F8B500BFF8BC08BC9E467047E0
:108E780000000000000000000102030406070809C2
:108E880000000000010203044A414D4D4958205694
:108E9800310000004A414D4D49582E696F000000CD
:108EA80048494420436F6E6669670000484944207A
:0C8EB800496E746572666163650000001D
:088EC40034B3FF7F0100000040
:048ECC00AD410008AC
:048ED00089410008CC
:108ED400010000001000000009022200010100E06E
:108EE40032090400000203000000092111010001FD
:108EF4002288000705810304000100000A0600021D
:108F0400000000400100000005010905A101A100C5
:108F1400850105091901290C15002501950C750118
:108F24008102950175048103C0C005010905A101F1
:108F3400A100850205091901290C15002501950CCC
:108F440075018102950175048103C0C005010905FD
:108F5400A101A100850305091901290C15002501AA
:108F6400950C75018102950175048103C0C005014A
:108F74000905A101A100850405091901290C1500A1
:108F84002501950C75018102950175048103C0C00A
:108F94000921110100012288000000005F6C000813
:108FA400356C0008116B0008000000000000000090
:108FB400BD6A0008D56A0008000000000000000037
:108FC4000000000000000000B16A0008C96A00083F
:108FD400000000008000000001000000CDCC4C3EE9
:108FE4000024F400120100020000004088888888F0
:108FF4000002010203030000040309041A03000031
:10900400000000000000000000000000000000005C
:1090140000000000000000000D8B0008198B000800
:10902400558B0008318B0008258B0008718B0008D4
:10903400958B00086801002000000000000000007B
:10904400000000000000000000000000000000001C
:10905400000000000000000000000000000000000C
:1090640000000000000000000000000000000000FC
:1090740000000000000000000000000000000000EC
:1090840000000000000000000000000000000000DC
:089094000000000000000000D4
:0400000508008C154E
:00000001FF
